:020000040800F2
:20000000001B0020D500000869A80008A34D000800000000000000000000000000000000B7
:200020000000000000000000000000001FAC00080000000000000000C1A8000899B000082B
:20004000E7000008E7000008E7000008E7000008E70000087B2B0008E7000008852B0008A0
:20006000E7000008E7000008E7000008E7000008E7000008E7000008000000005DB10008D0
:2000800000000000E70000080000000000000000E700000800000000E7000008E7000008A4
:2000A000E7000008E7000008E7000008E7000008E7000008E7000008E7000008E7000008C8
:2000C0000348854600F010FA0048004779C10008001B00200448804704480047FEE7FEE794
:2000E000FEE7FEE7FEE7FEE709B10008C100000830B50B46014600202022012409E00D46A1
:20010000D5409D4205D31D469540491B2546954040191546521E002DF1DC30BD70B50024E3
:200120002546002801DA01244042002901DA01254942FFF7DDFFAC4200D04042002C00D0E7
:20014000494270BD10B503461C460C43A40703D009E010C9121F10C3042AFAD203E00C7883
:200160001C70491C5B1C521EF9D210BDD2B201E00270401C491EFBD270470022F6E710B52D
:2001800013460A4604461946FFF7F0FF204610BD30B505460020034600E05B1C934205D259
:2001A000EC5CC85C201A01D1002CF6D130BD034603220870000A491C521EFAD5184670473E
:2001C000F8B502464A40D40F42004B0052085B089A4202D20246084611464A0023D0C30DC9
:2001E0004A00DDB2120EAD1A202D35DA49020126490AF6058A19002C00D0524220214F1B45
:200200001146B9402A411018C20D9A4221D0002C17D0012D08DCDA05801AD20F8019D2076E
:20022000DBB200F028F9F8BDDA05801A012340001B06C01880185A428018CA0F1043490054
:2002400007E04908C2071143DA05801A80194008801800F008F9F8BD61000122511A001BA7
:20026000F7E70122D2075140AAE70122D2075040A6E7024670B54A40D30FDB0740002DD071
:200280004A002AD0010E140E000212020919400A520A8418E50104465443000A120A2E0450
:2002A0005043A4194219200CC543AA18120C0125AD03521C521912047F39240400D0521C9C
:2002C000104301D44000491EC2B20C06C0092018401C4008802A02D003E0002070BD400830
:2002E0004000002900DA0020184370BD70B502464A40D50F40004A00ED07400852080028F0
:2003000014D0002A12D0C40DD30D41020120C0055202490A520AE41A091812187D34914243
:2003200001D3641C00E04900002C01DA002070BD0023914201D3891A034340084900002880
:20034000F7D100290AD0914202D10121C90705E0914201D2012101E00121C943E005C018C1
:20036000401900F080F870BDC217C10F504010B54018CA079623002100F07DF810BD10B597
:2003800000229623114600F076F810BDC20F410040020123400ADB05D207090EC0187F29EE
:2003A00001DA00207047962903DC9623591AC84001E096398840002AF4D0404270474100D9
:2003C00040020122400AD205090E80187F2901DA00207047962903DC9622511AC84070470E
:2003E000963988407047F0B51FB40646002082B005464024019100901BE0019922460F4676
:20040000304600F083F8049A059B801A994110D310461946224600F016F8361A8F41019793
:20042000224601200021009F00F00DF838184D4100902046641E0028DFDC019B00982946A2
:20044000324607B0F0BD10B5202A04DB0146203A9140002010BD914020239C1A0346E3403D
:200460001943904010BD002904DA401C490001D140084000704770B40024050C05D1102463
:20048000000402D1002921D01124050E01D100020834050F01D10001241D850F01D1800005
:2004A000A41C002801DB4000641C002908D020252E1B0D46F540A14000D001212943084317
:2004C00001061B1B000ADB1D02D5002070BC7047DB05181880180029F8DA401C4900F5D1F5
:2004E00070BC400840007047064C0125064E05E0E36807CC2B430C3C98471034B442F7D329
:20050000FFF7E2FDF0C4000810C5000810B5202A04DB0846203AD040002110BD0B46D34075
:20052000D0402024A21A91400843194610BD70B58C180578401C6B075B0F01D10378401C3C
:200540002A1106D10278401C03E006780E70401C491C5B1EF9D12B0705D40023521E0DD451
:200560000B70491CFAE70378401CCB1A921C03E01D780D70491C5B1C521EF9D5A142D8D3B3
:20058000002070BD1CB5044602F000FEC0086946087102F0FBFDC00A694648718C71200AD0
:2005A000C87101A800900C48042381890022C0880BF07CFB00280ED008480088800509D527
:2005C00007A111480AF0F4FE10490860C1B20E480AF036FD47201CBD480000200C000020A3
:2005E0004572726F72205570646174696E67204163634576656E745F4E6F74696679204331
:200600006861720D0A000000640500203800002070B586B015460C46064602F0B7FDC008E5
:200620006946087102F0B2FDC00A694648713078887130880012C87130790872B0880012AE
:200640004872307A887230890012C87264212068FFF764FD0646206064216068FFF75EFD69
:2006600060606421A068FFF759FD6946A0600E73208814230012487320798873A088002227
:200680000012C873207A08742089001248742878887428880012C87428790875A888001286
:2006A0004875287A887528890012C87501A800900B484189C0880BF0E3FD00280ED009480E
:2006C0000088800509D508A110480AF071FE10490860C1B20D480AF0B3FC472006B070BD49
:2006E000480000200C0000204572726F72205570646174696E67204163632F4779726F2FDA
:200700004D616720436861720D0A00006405002038000020F0B58BB01B2769460F76C520F3
:200720004876D5208876A520C87602250D7700244C77B42088779A20C877E12608A90E7071
:20074000112048700F208870CC701D4800900423012206A9099402200BF02AFA00282CD15C
:2007600069460F76C5204876D5208876A520C8760D774C7736208877AC20C87708A90E70D6
:20078000112048700F208870CC700D714C718C710B4BCC719B1C01221021052002AD0FC58F
:2007A00014200346009006480194203806AA0221008C0BF0A5F9002800D047200BB0F0BD32
:2007C00068000020F0B58BB01B266A461676C5245476D5259576A527D7760220107700209A
:2007E0005077B42191779A21D177E12108AA1170112151700E219170D07009903548009014
:200800000723012206A902200BF0D2F900285ED169460E76C5204876D5208876A520C876D1
:2008200002250D7700244C7736208877AC20C877E12708A90F70112048700E208870CC7043
:20084000012008714C718C71CC71224A0490921C05921E200090102105231E48029303910C
:2008600001942438142306AA0221808C0BF048F900282CD169460E76C5204876D520887647
:20088000A520C8760D774C7736208877AC20C87708A90F70112048700E208870CC700D71B5
:2008A0004C718C710B4BCC711B1D01221021042002AD0FC512200090064801942438142380
:2008C00006AA0221808C0BF01BF9002800D047200BB0F0BD6C000020F0B58BB01B256A4607
:2008E0001576C5265676D5279776A524D4760220107700205077B42191779A21D177E12128
:2009000008AA11701121517001219170D07009907F480A4600900D2306A902200BF048F9D1
:2009200000287DD16846057646768776A521C176022101770024447736218177AC21C17794
:20094000E12108A801701121417001218170C470704B09946E485968801F022902D00129B5
:2009600009D011E008AA91790522114308AA91714178091D07E008AA91790422114308AA14
:2009800091714178891C417059691A46002908D008AB99790823194308AB99714178891CBC
:2009A000417011691022002906D008AB9979114399714178091D4170554B10229B1C00217E
:2009C0000392059312220424049118460092019102940838437806AA0221C0880BF090F848
:2009E00000281DD16A461576C5205076D5209076A520D076022717770020507736219177F8
:200A0000AC21D177E12108AA11701121517001219170D07010715071E0219171D07100E0D0
:200A200072E03B49102604900190091D042200963748029205910396801F142306AA0221B8
:200A4000C0880BF05DF800285ED168460576C5214176D5218176A521C17602210177002438
:200A6000447736218177AC21C177E12708A807701121417001218170C470042104714171C2
:200A80008471C47122480291801D0590122000901F48039604940B460194801F06AA02214B
:200AA000C0880BF02DF800282ED169460D76C5204876D5208876A520C876022008774C7778
:200AC00036208877AC20C87708A90F701120487001208870CC700C714C718C712020C87198
:200AE0000B490420083102900591122000900848039604940194801F032306AA0221C08865
:200B00000AF0FEFF002800D047200BB0F0BD00004E000020FC060020F0B5C34D0520697ACA
:200B20008BB0012900D107201B266F463E76C5247C76D521B976A521F97602233B77002181
:200B40007977B422BA779A22FA77E12208AF3A7011227A70BB70F9700991B44900914100F3
:200B60004318012206A902205B1C0BF021F800287ED169460E76C5204876D5278F76A52088
:200B8000C8760220087700244C7736208877AC20C877E12008A90870112048700120887003
:200BA000CC700C7148718C71CC71A04A1020921C05920390009004219C480291049401943E
:200BC0001038142306AA0221008A0AF099FF0028CED169460E76C5204876D5208876A52052
:200BE000C876022008770020487736228A77AC22CA77E12208A90A7011224A7001228A7097
:200C0000C87010270F7148718871C87187490490891D059101901221844804240091039777
:200C200002941038032306AA0221008A0AF068FF00289DD16A461676C5205076D52090767A
:200C4000A520D076022010770020507736219177AC21D177E12108AA11701121517001213B
:200C60009170D0700821117150719071D07100E0D4E06E4A1021083205920391049001907E
:200C8000042312216948029300911038032306AA0221008A0AF034FF002899D169460E7666
:200CA000C5204876D5208876A520C87602270F7700244C7736208877AC20C877E12008A9F3
:200CC00008701120487001208870CC700F714C718C71564ACC710A3205921021042002AB72
:200CE00013C312200090514801941038032306AA0221008A0AF004FF00289AD168460676A9
:200D0000C5214176D5218176A521C1760777447736218177AC21C177E12108A8017011216A
:200D2000417001218170C470017144718471C4713E4A10200C320390059212200090042163
:200D40003A480291049401941038082306AA0221008A0AF0D5FE002860D1687A012860D11F
:200D60001B2069460876C5204876D5208876A520C876022008774C7736208877AC20C877AE
:200D8000E12008A908701120487001268E70CC70402008714C718C71CC7124491025091D47
:200DA00004200095214F059103950494034601940290103F06AA0221388A0AF0A1FE00282F
:200DC0002CD11B2069460876C5204876D5208876A520C876022008774C7736208877AC2090
:200DE000C877E12008A90870112048708E70CC70202008714C718C71CC7139461E31009554
:200E0000042005910395049401940290032306AA0221388A0AF074FE002802D047200BB07E
:200E2000F0BD0020FBE700001C07002058000020F7B5FB4A0D46538AFC4C0146F94FFA4E08
:200E40009B1C206899422AD129780822012902D0002910D019E0104320600021F14803F094
:200E600055FA002801D001F0BBFF3868416AF04A8918416309E0904320600021E94803F034
:200E800069FA002801D001F0ABFF2068C1053DD5000701D5E7A200E0E7A2E8A12EE0938A78
:200EA0009B1C994233D1297801221203012902D0002910D019E0104320600021D94803F0BD
:200EC00025FA002801D001F08BFF3868416AD84A8918416309E0904320600021D14803F064
:200EE00039FA002801D001F07BFF2068C1050DD5C00401D5CFA200E0CFA2D4A1D8480AF040
:200F000057FAC1B23060D6480AF0CAF9FEBDD38A9B1C994230D128781025012802D00028FF
:200F200013D01FE00AF072F82068082128432060BC4803F0EBF9002801D001F051FF38681A
:200F4000416AC84A8918C1630CE00AF045F820680821A8432060B34803F0FCF9002801D0F4
:200F600001F03EFF2068C105D0D5C00601D5B1A200E0B1A2BCA1C1E7D38B9B1C994231D137
:200F8000287801256D03012802D0002813D01FE00AF03CF82068082128432060A14803F070
:200FA000B5F9002801D001F01BFF3868416AAD4A8918C1630CE00AF00FF820680821A843EF
:200FC0002060984803F0C6F9002801D001F008FF2068C1059AD5800401D596A200E096A2A7
:200FE000A5A18BE7138B9B1C99422FD128782025012802D0002812D01EE00AF007F82068A0
:20100000042128432060874803F080F9002801D001F0E6FE3868416AC83181630CE009F0AA
:20102000DBFF20680421A84320607E4803F092F9002801D001F0D4FE2068C10594D5800681
:2010400001D57CA200E07CA28FA157E7538B9B1C994230D128784025012802D0002813D0B4
:201060001FE009F0D3FF20680021284320606D4803F04CF9002801D001F0B2FE3868416A40
:201080006B4A891841630CE009F0A6FF20680021A8432060634803F05DF9002801D001F0DA
:2010A0009FFE2068C10595D5400601D561A200E061A27BA122E7938B9B1C99422FD1287864
:2010C0008025012802D0002812D01EE009F09EFF2068042128432060524803F017F9002875
:2010E00001D001F07DFE3868416AC83181630CE009F072FF20680421A8432060494803F099
:2011000029F9002801D001F06BFE2068C10595D5000601D547A200E047A266A1EEE6538C5A
:201120009C469B1C994210D12978674A012901D0002900D11160C005B5D51068002801D0E2
:201140003CA200E03CA261A1D8E653899B1C99422BD129780422012902D0002911D01AE002
:20116000104320600C212F4803F0D0F8002801D001F036FE3868416A584A126889180164B2
:2011800009E0904320600C21264803F0E3F8002801D001F025FE2068C10584D5400701D5D9
:2011A00024A200E024A24EA1A8E693899B1C994218D1297801229202012902D0002903D05F
:2011C00006E01043206003E09043206001F018FC2068C1059BD5400501D516A200E016A2F2
:2011E00045A18BE613899B1C994217D12978012902D0002913D096E0012108432060002155
:20120000084803F083F8002801D001F0E9FD3868416A3E4A12688918416384E08EE077E085
:201220004800002064060020380000200C000020881300004F4E00004F4646002D2D2D3E60
:201240005175617465723D25730D0A002D2D2D3E45436F6D706173733D25730D0A00000064
:2012600064050020710200002D2D2D3E4163745265633D25730D0A002D2D2D3E496E74445B
:2012800065743D25730D0A002D2D2D3E4361727279506F735265633D25730D0A000000008B
:2012A0002D2D2D3E476573747572655265633D25730D0A002D2D2D3E4163635065646F3DF3
:2012C00025730D0A00000000100000202D2D2D3E43616C69623D25730D0A0000180000206B
:2012E0002D2D2D3E4163632F4779726F2F4D61673D25730D0A0000002D2D2D3E4163634511
:2013000076656E743D25730D0A000000140000204008400020600021344803F01BF800281D
:2013200001D001F05DFD2068C10500D4EEE5C00701D02FA200E02F4A2FA1DFE5138D9B1CEF
:20134000994208D10122297852020BE00029EDD190432060FEBDD38C9F1CB94206D1297854
:20136000FF2201320129F1D11043F2E75B1C994208D12846029901F0C1F90028EAD02846D2
:201380000299C1E5D289921C914219D129780222012902D0002907D008E0104320601A4868
:2013A000007A03F0F5FF01E0904320602068C105D0D5800701D50EA200E00E4A13A19DE52A
:2013C0006246521C914204D12846029901F024F8FEBD8005FCD511A1184809F0E9FFC1B2C2
:2013E0003060164809F02CFEFEBD0000640600204F4E0000381200082D2D2D3E456E763D7D
:2014000025730D0A000000001C0700202D2D2D3E4C65643D25730D0A000000004E6F74697A
:201420006669636174696F6E20554E4B4E4F572068616E646C650D0A000000006405002031
:20144000002809D00169002906D00278692A03D1496F002900D0084701207047002809D068
:201460000169002906D00278692A03D1896D002900D0084701207047002809D00169002978
:2014800006D00278692A03D14968002900D0084701207047002809D00169002906D00278E0
:2014A000692A03D14969002900D0084701207047002809D00169002906D00278692A03D1A8
:2014C000C96C002900D0084701207047002809D00169002906D00278692A03D1096B0029CF
:2014E00000D0084701207047002809D00169002906D00278692A03D1C96B002900D008472E
:2015000001207047002809D00269002A06D00378692B03D1126F002A00D0104701207047FA
:20152000002809D00269002A06D00378692B03D1526D002A00D0104701207047002809D073
:201540000269002A06D00378692B03D11268002A00D0104701207047002809D00169002906
:2015600006D00278692A03D10969002900D0084701207047002809D00269002A06D003783B
:20158000692B03D1926C002A00D0104701207047002809D00269002A06D00378692B03D16D
:2015A000D26A002A00D0104701207047002809D00269002A06D00378692B03D1926B002A50
:2015C00000D010470120704700280BD00269002A08D0002906D00378692B03D1926F002A8F
:2015E00000D010470120704700280CD00269002A09D0002907D00378692B04D1803212686A
:20160000002A00D010470120704700280BD00269002A08D0002906D00378692B03D1D26F0E
:20162000002A00D010470120704700280CD00269002A09D0002907D00378692B04D1803279
:201640009268002A00D010470120704700280CD00269002A09D0002907D00378692B04D111
:2016600080325268002A00D010470120704700280CD00269002A09D0002907D00378692B54
:2016800004D180321269002A00D010470120704700280CD00269002A09D0002907D0037832
:2016A000692B04D18032D268002A00D010470120704710B500280AD0C268002907D09269C0
:2016C000002A04D09047012800D0002010BD012010BD00280BD00269002A08D0002906D0F2
:2016E0000378692B03D1D26D002A00D010470120704700280BD00269002A08D0002906D030
:201700000378692B03D19268002A00D010470120704710B500280AD0C268002907D0526A16
:20172000002A04D09047012800D0002010BD012010BD00280BD00269002A08D0002906D091
:201740000378692B03D19269002A00D010470120704710B500280AD0C268002907D0126A15
:20176000002A04D09047012800D0002010BD012010BD00280BD00269002A08D0002906D051
:201780000378692B03D1126D002A00D010470120704700280BD00269002A08D0002906D04F
:2017A0000378692B03D1D269002A00D010470120704700280BD00269002A08D0002906D073
:2017C0000378692B03D1526B002A00D010470120704700280BD00269002A08D0002906D0D1
:2017E0000378692B03D1126C002A00D010470120704710B5002808D0C2681269002A04D0F7
:201800009047012800D0002010BD012010BD10B500220C460A6000280AD00128084609D028
:2018200000F088FB012809D1204600F00DFB03E00846FAE700F07EFB012800D0002010BD73
:2018400070B5050019D02C69002C16D02878692813D1216A002910D0606A00280DD02846E8
:201860008847012808D00A2001F0A8FB616A28468847012800D0002070BD012070BD10B579
:20188000002808D0C1688968002904D08847012800D0002010BD012010BD10B5002808D0C9
:2018A000C268926B002A04D09047012800D0002010BD012010BD002809D00269002A06D0EC
:2018C0000378692B03D1D268002A00D010470120704710B5002808D0C268D26A002A04D099
:2018E0009047012800D0002010BD012010BD002809D00269002A06D00378692B03D1126E6E
:20190000002A00D010470120704710B500280AD0C268002907D09269002A04D090470128B4
:2019200000D0002010BD012010BD10B500220C460A6000280AD00128084609D000F038FBE4
:20194000012809D1204600F0BBFA03E00846FAE700F02EFB012800D0002010BD10B500287B
:2019600008D0C1688968002904D08847012800D0002010BD012010BD70B5184C0546607928
:20198000012821D009F0BAFA01281DD0BC20207000266670BE20A07026716671A67101206E
:2019A000E0710F4823460F49083343C30E4A011F0A6042C02C60E16820460968002904D0F0
:2019C0008847012807D0002070BD1421FEF7D5FB01202E6070BD2868F7E70000B0070020D0
:2019E0000405002080000020E800002070B5184C05466079012822D009F080FA01281ED0C4
:201A0000BC20207000266670BE20A07026716671A6710120E0712046234650300D49083399
:201A200043C30E490C4A0A6042C02C60E16820460968002904D08847012807D0002070BDC2
:201A40001421FEF79AFB01202E6070BD2868F7E72C080020B4000020E80000202405002004
:201A600010B500280AD0C268002907D09269002A04D09047012800D0002010BD012010BDD1
:201A800010B5002208460A60FFF776FF012800D0002010BD002805D0002903D0407908702C
:201AA000002070470120704710B5002808D0C1688968002904D08847012800D0002010BDE6
:201AC000012010BDF0B50F4987B0CA6A01231A43CA62C96A0C4E194045000591715B0091E5
:201AE000002102910321094F0391019384003859694601F091FA715B3859002201F03BFBA8
:201B000007B0F0BD001002405CC400083405002010B5054A4100515A044A80001058002236
:201B200001F029FB10BD00005CC400083405002010B5054A4100515A044A800010580122E9
:201B400001F019FB10BD00005CC400083405002070B5164C0646607901281ED009F0CEF9AF
:201B600001281AD03D202070002565703C20A07025716571A5710E482246E5710D490832D9
:201B800023C2011F22C03460E16820460968002904D08847012807D0002070BD1421FEF767
:201BA000ECFA0120356070BD3068F7E7C407002010050020EC00002070B51D4C0546607B06
:201BC00001282CD009F09AF9012828D0B120207200266672B820A072022020736673A67341
:201BE00001202146E0732C3108464C380163114941631149816312481049016021461C3173
:201C00004E610861084614382860C1680968002906D08847012809D004F024FA002070BDC1
:201C20001421FEF7AAFA01202E6070BD2868F7E7F8070020FC03002064040020DC040020C6
:201C40002005002070B51E4C0546607801282DD009F054F9012829D02046B12120380177F7
:201C600000264677B8218177032020706670A67001202146E07028310846683841641149F3
:201C800081641149C16412481049016021461031CE618861201F2860C1680968002906D0AC
:201CA0008847012809D004F0DDF9002070BD1421FEF763FA01202E6070BD2868F7E700006B
:201CC0006C08002030040020A0040020DC04002030050020F8B505461420274F6843C019DD
:201CE00040790C4601283ED009F008F901283AD039460122BD203C31204B0026002D02D0F9
:201D0000012D27D110E03870BA207E70B8703E717E71BE71FA713D4608354AC51948184A4B
:201D2000026041C1276015E038757E75B820B8753A767E76BE76FA760F481C37443049C7A8
:201D40000F4A1048121D001D0260CE6088600A48143020602068C1680968002904D088470A
:201D6000012807D00020F8BD1421FEF706FA01202660F8BD2068F7E7D8070020340100204E
:201D80009C01002018050020F8B5054614202A4E6843801940790C46012844D009F0AEF87A
:201DA000012840D0284637460121BD235037234A0025012803D0022815D020682BE033759E
:201DC0007575BA20B07531767576B5761A48F17658301C3625C61B4819490160FD60B86034
:201DE0001548143016E014483036203003724572B82383720223037345738573C17340304F
:201E000025C60F490F48091D001D01607D613861094828302060C1680968002904D088477E
:201E2000012807D00020F8BD1421FEF7A6F901202560F8BD2068F7E72C0800206801002066
:201E40009C0100202805002070B5194C05466079012824D009F052F8012820D06820207039
:201E600000266670D620A07026716671A6710120E0712046234628300E49083343C30F4952
:201E80000D4A4A6042C02C60E16820460968002906D08847012809D005F0AEFC002070BDD7
:201EA0001421FEF76AF901202E6070BD2868F7E740070020A401002044020020EC040020A9
:201EC00070B5184C05466079012822D009F016F801281ED06820207000266670D620A07002
:201EE00026716671A6710120E0712046234628300D49083343C30E490C4A4A6042C02C6048
:201F0000E16820460968002904D08847012807D0002070BD1421FEF730F901202E6070BD59
:201F20002868F7E778070020F401002044020020F804002070B51A4C0546607E012826D02A
:201F400008F0DCFF012822D06920207500266675D420A075012020766676A676E076204600
:201F60003030E0610F4820620F486062204628300E49C660816014382860C168096800291B
:201F800006D08847012809D007F010FC002070BD1421FEF7F2F801202E6070BD2868F7E7EC
:201FA000400700205C0300204C020020E804002070B51A4C0546607E012826D008F09EFF59
:201FC000012822D06920207500266675D420A075012020766676A676E07620463030E061B2
:201FE0000F4820620F486062204628300E49C660816014382860C1680968002906D0884797
:020000040800F2
:20200000012809D007F0D2FB002070BD1421FEF7B4F801202E6070BD2868F7E778070020EE
:20202000AC03002020030020F404002010B500280AD0C268002907D09269002A04D09047B5
:20204000012800D0002010BD012010BD10B5002208460A60FFF77CFD012800D0002010BDB8
:2020600010B5002808D0C1688968002904D08847012800D0002010BD012010BDF0B50446F2
:20208000284887B0C36A04221343C362C36A13400593426B01231A43426300236200224DEC
:2020A000A000224E00291DD0012926D1A95A00911F49019102933058694600F0ADFF2F1F95
:2020C0003957FF26C025002919DB8A0819489200121813688807C00E8640B34385402B43D3
:2020E00013601BE0A95A0091022102910321039101933058694600F08FFF07B0F0BD0807B4
:20210000000F083882080C4892001218D3698807C00E8640B34385402B43D361385701F09A
:2021200075FAEAE7001002405EC40008380500200000111000E400E000ED00E010B50028E7
:202140000AD0C268002907D09269002A04D09047012800D0002010BD012010BD10B50C46C0
:202160000021216000280DD0012810D00228204610D0FFF721FD012810D12146FFF7AAFD1D
:2021800001280BD121460020FFF7A4FD04E021460120F9E7FFF710FD012800D0002010BDE7
:2021A000002805D0002903D040790870002070470120704710B5002808D0C168896800293E
:2021C00004D08847012800D0002010BD012010BD10B500280AD0C268002907D09269002A72
:2021E00004D09047012800D0002010BD012010BD10B50C460021216000281AD0012813D089
:2022000002281AD0032820461AD0FFF71BFD01281AD121460220FFF7B7FD012814D1204666
:20222000FFF7E4FB01280FD121460120FFF7ACFD08E02046FFF7DAFB04E021460220F5E737
:20224000FFF700FD012800D0002010BD002805D0002903D0407908700020704701207047CC
:2022600010B5002808D0C1688968002904D08847012800D0002010BD012010BD10B50520F5
:202280000121000700F072FF012800D0002010BD70B5FF24052501342D07002221462846FC
:2022A00000F069FF052000F089FE01222146284600F061FF052000F081FE70BDF0B587B045
:2022C0000F460646FF20694608731FA003C8059000240691052022460221000700F04BFF49
:2022E0000F200090052301AA05A9194801F084FD69460879022817D1087AC97905020D436E
:2023000012D0BD4200D93D460F270BE0012304AA03A90F48009701F06FFD6846007C3055E7
:20232000641CE4B2AC42F1D3052001220221000700F021FF0020009000BF401C00900228CE
:20234000FADB204607B0F0BD0B00000000000000E8080020FFB5C7B0002427A0059403C849
:202360000390049126A003C801901E4615460291052001F03FF9052000220221000700F012
:20238000FAFE0F27052301AA03A91F48009701F033FD0598002801D00AF036F8684600798C
:2023A00002280DD00024E443052001220221000700F0E1FE052001F029F920464BB0F0BD44
:2023C00068464079A919884212D3002D06D02B4606AA00970C48479901F00EFD002EE3D059
:2023E000334606AA00970848489901F005FDDBE70124E443D8E700000A0000000000000022
:20240000AA00000000000000E8080020014901204861704700040140F8B5C1788278090207
:2024200011434ABA4178012609040A430178704F09060A43057944793105531A38688A422C
:202440000ED010DC6B4FD11B2CD03F239B02C91A06D003231B04C91A02D03B0299424ED127
:20246000FF2DFCD1A0E0591A71D001235B05C91AFAD05B00C91AF7D03F23DB059942EED11D
:20248000C0050AD52B465CA1614808F091FF61490860C1B25E4808F003FF002D74D0012D35
:2024A0007AD16EE0C0050BD52B465BA15848009408F07EFF57490860C1B2554808F0F0FECA
:2024C000702D31D006DC642D1AD0662D09D06F2D15D14AE0732D1DD0742D3CD0772D0ED12C
:2024E0002EE0002C04D0012C7FD100F071FB01E000F0AEFA22462946384600F0B3F874E038
:20250000002C04D0012C70D100F046FBF2E700F05FFAEFE7002C04D0012C66D100F0A2FB33
:20252000E8E700F0DDFAE5E7002C06D0012C5CD100F082FB08F0F2FADCE700F0B9FAD9E766
:20254000002C05D0012C50D100F0BCFBD2E741E000F0F6FACEE7002C04D0012C45D100F0E3
:2025600099FBC7E700F0D4FAC4E7002C04D0012C3BD100F049FBBDE700F082FABAE703E0AF
:202580000AE008F0F9F801E008F0ECF8012022462946400700F066F83878800725D5254880
:2025A000007A02F0F5FE20E02349002C03D07D23DB00634315E0214B13E02B4620A114484E
:2025C000009408F0F5FE13490860C1B2104808F067FE09E0FF2D08D12149002CE7D1FF2332
:2025E000F5330B60C005E8D400263046F8BD00000C00002000040000436F6E66205369677D
:2026000020463D256C7820433D2532780A0D00006405002038000020436F6E6620536967DE
:2026200020463D256C7820433D256320443D25780D0A00001C07002014000020881300005F
:20264000436F6E662053696720463D256C7820433D25327820446174613D2532780A0D00D9
:2026600018000020FEB515460E46044600F08EFDC0086946087100F089FDC00A6946487163
:202680004C72200A0872200CC871200E88718E72CD7201A800900C480823418C0022008CDA
:2026A00009F004FB00280ED008480088800509D507A1104808F07CFE0F490860C1B20D48E7
:2026C00008F0BEFC4720FEBD480000200C0000204572726F72205570646174696E672043C9
:2026E0006F6E66696775726174696F6E20436861720D0A006405002038000020F0B5044640
:2027000001468BB00125042262A0FDF741FD634E002803D02078702803D005E0002560A1FD
:2027200040E06078722839D0042221466AA0FDF72FFD00283FD02278752A72D0002160789C
:20274000692870D000231940A378642B6DD0002319426CD062486349027A0988437A847A6D
:202760000905090D0794089309920A918179C47A0379427903AD1EC54178C37902786C46A6
:202780000EC48378C27858A1664808F011FEC1B23060644808F084FD002568E008F0BEF940
:2027A000002561A15F4808F003FEC1B230605D4808F076FD5BE0302131200191009000251B
:2027C000332361A26449574808F0F2FDC1B23060544808F065FD00F0D5FCC0B2009000F0C1
:2027E000D1FC0004070E00F0CDFC0002040E00F0C9FC020E009859A15BA302930391019017
:20280000009723465BA1474808F0D2FDC1B23060444808F045FD02E003E004E005E062A10C
:20282000C0E701218BE701238DE7012390E7402A1DD10122FF2632230021542802D041285D
:2028400018D014E006256F463970042016E04D2808D101E07B7105E00A20787102E07A7119
:2028600000E0797129463846FFF7D6FD054628460BB0F0BD06256F46397080207870B9707D
:20288000F9703E71A0784428EBD04828E7D04C28E0D0DCE768656C700000000038000020D2
:2028A000436F6D6D616E643A0D0A70722D3E4857207065646F6D65746572207265736574F4
:2028C0000D0A696E666F2D3E2053797374656D20496E666F0D0A0000696E666F00000000B6
:2028E0005000F81F002004E0252E3258252E3258252E3258252E3258252E3258252E32583F
:20290000252E3258252E3258252E3258252E3258252E3258252E32585F252E336C580D0AC9
:2029200000000000640500205065646F6D6574657220485720636F756E7465722072657320
:2029400065747465640D0A0046502D534E532D4D4F54454E5631000060C4000831323A345F
:20296000333A3334000000004A756C203132203230313700092848414C20256C642E256C11
:20298000642E256C645F256C64290D0A09436F6D70696C656420257320257320284B454955
:2029A0004C290D0A00000000436F646520636F6D70696C656420666F7220582D4E55434C65
:2029C000454F2D494B53303141310D0A0000000010B5094CA06900280DD0E069FEF73EFDC4
:2029E0000649012803D00868042290430860E0694968FEF76EFF10BDFC0600200000002050
:202A000010B5124C2078C00701D000F051F82078800701D500F01CF82078400701D5FFF786
:202A2000D7FF2078000701D500F05AF82078C00601D500F085F82078800601D500F068F824
:202A40002078400601D500F01BF810BD0000002010B5094CA06900280DD0E069FEF70CFD63
:202A60000649012803D00868022290430860E0694968FEF72EFF10BDFC0600200000002011
:202A800010B5094CA06900280DD0E069FEF7D8FC0649012803D00868402290430860E0695B
:202AA0004968FEF716FF10BDFC0600200000002010B5094CA06900280DD0E069FEF7EAFC00
:202AC0000649012803D00868400840000860E0694968FEF7FEFE10BDFC0600200000002051
:202AE00010B5094CA06900280DD0E069FEF7E0FC0649012803D00868082290430860E0692B
:202B00004968FEF7E6FE10BDFC0600200000002010B5094CA06900280DD0E069FEF7D6FCE4
:202B20000649012803D00868202290430860E0694968FEF7CEFE10BDFC0600200000002093
:202B400010B5094CA06900280DD0E069FEF7CCFC0649012803D00868102290430860E069D6
:202B60004968FEF7B6FE10BDFC0600200000002010B5052000F03EFD10BD10B5012000F034
:202B80003FFA10BD10B50120400300F039FA102000F036FA10BD000010B50B4CA069002879
:202BA00010D0FFF72DFF0021E069FEF7B9FC012804D0064804220168114301601021E069F6
:202BC000FEF795FE10BD0000FC0600200000002010B50B4CA069002810D0FFF711FF00210A
:202BE000E069FEF7ABFC012804D0064802220168114301600321E069FEF75DFE10BD0000D9
:202C0000FC0600200000002010B5094CA06900280CD0FFF7F5FE0021E069FEF773FC01286B
:202C200004D00448402201681143016010BD0000FC0600200000002010B5084CA06900289B
:202C40000BD0FFF7DDFEE069FEF786FC012804D00348012201681143016010BDFC06002090
:202C60000000002010B5094CA06900280CD0FFF7C7FE0021E069FEF77DFC012804D0044831
:202C8000082201681143016010BD0000FC0600200000002010B5094CA06900280CD0FFF7C0
:202CA000AFFE0021E069FEF773FC012804D00448202201681143016010BD0000FC06002001
:202CC0000000002010B5094CA06900280CD0FFF797FE0021E069FEF769FC012804D0044815
:202CE000102201681143016010BD0000FC0600200000002010B5052000F088FC10BD00004A
:202D0000F0B585B01F4615460E46044600F03EFAC0086946087100F039FAC00A694648710E
:202D2000214902200B6901AA002B08D06B469C712012D87120141872200E587206204B691C
:202D4000002B04D01654330A14186370801C4C683B041B0EF9B2022C02D0012C05D007E082
:202D600015542C1215186C70801C1154101843700E480092437801890022C08808F096FFA3
:202D800000280ED00A480088800509D509A1124808F00EFB11490860C1B20F4808F050F91E
:202DA000472005B0F0BD0000FC060020480000200C0000204572726F722055706461746903
:202DC0006E6720456E7669726F6E6D656E74616C20436861720D0A00640500203800002006
:202DE000FEE7000010B51C4800240121C46201701A4804601A488069002801D0FFF700FEEA
:202E000018480021046018480460184801F0A2FA002801D0FFF7E4FF0821144801F09AFA40
:202E2000002801D0FFF7DCFF0421104801F092FA002801D0FFF7D4FF0C210C4801F08AFA16
:202E4000002801D0FFF7CCFF094801F043F9002801D0FFF7C5FF10BD480000200C00002026
:202E6000FC0600204400002010000020640600209C060020F0B5474D0024A86987B0002883
:202E800037D0002168460170017101720173017401756946E869FEF7B8FB01A9E869FEF70F
:202EA000A3FB02A9E869FEF7D1FB03A9E869FEF7BCFB04A9E869FEF7EBFB05A9E869FEF741
:202EC000D6FB68460278037A15461D43017CAC460D4300792E46054307D16F463F7B012F56
:202EE00003D16F463F7D002F02D0012A02D00FE004244BE0002B0BD1002909D1002807D143
:202F00006F463F7B002F03D16F463F7D002F02D0002E02D00BE0012438E0012807D16E46F0
:202F2000367B002E03D16E46367D002E02D0002A02D00FE0032429E0012B0BD1002909D151
:202F4000002807D16A46127B002A03D16A46127D002A04D06A46127B154302D005E0022487
:202F600014E06B461B7D012B03D06346002B02D00CE005240AE0012908D1002806D1002A44
:202F800004D16846007D002800D10624204607B0F0BD0000FC06002008B50020694608800E
:202FA00005488169002903D0C0696946FEF7F1FB6846008808BD0000FC06002031B500F032
:202FC000E5F8044600E030BF00F0E0F80099001B8842F8D338BD000070B50125074C01282E
:202FE00006D0102808D06903884200D1656170BD01F072FAE56170BDA56170BD08000020C6
:2030000010B504494A69024202D04861FFF7E4FF10BD000000040140F0B5002292E00124E3
:203020009440A44623407DD04C68022C01D0122C0CD1D408A40027183D6A5407E40E0F266C
:20304000A640B5430E69A6402E433E624C68012C05D0022C03D0112C01D0122C11D1856852
:2030600054000326A640B543CE68A6402E43866044686546AC430D79ED06ED0F954025438A
:203080004560076854000325A5400E79AF43B607B60FA6403E430660C668AE438D68A540FA
:2030A0003543C5604C68E4004BD5294D6C6B012634436C639508274CAD002F19BD6894073C
:2030C000240F0F26A640B54305263607B04201D1002614E0204EB04201D101260FE01F4EAF
:2030E000B04201D102260AE01D4EB04201D1032605E01C4EB04201D1052600E00626A64072
:203100002E43BE60184D2C684E689C43F60300D51C432C606C684E689C43B60300D51C4383
:203120006C6000E00DE0AC684E689C43F60200D51C43AC60EC684E689C43B60200D51C4340
:20314000EC60521C0B681C46D44000D067E7F0BD00100240000001400004005000080050C2
:20316000000C0050001C0050000401400069084000D001207047002A01D081617047816272
:2031800070470000004870470001080101480068704700004805002070B5040012D024204B
:2031A00025464035687020680168490849000160204600F0BDF90020606468702063A87008
:2031C000287070BD012070BD403040787047000070B5040006D025464035687800260028F0
:2031E00002D005E0012070BD2E70204600F0A2F924206870206801684908490001600F2103
:2032000060680906884321680861206882680121C9038A438260E0680128A06808D0212277
:203220009202104322689060E068022802D005E00843F7E701202268C0025060206842688C
:203240000F4B1A4342602068C2688A43C260616920690843A169090208432168C860216A3A
:20326000E069084321680860206801680122114301606664202068702663AE70002070BD2A
:2032800000800002FFB5054604464035687883B0202873D10C98002871D00D9800286ED037
:2032A000287801286AD001202870FFF76FFF0646012200901923D103204601F097FE0028CB
:2032C00076D1222068704020A870002767640C9860620D98608567630E980090019604A9EF
:2032E0000EC9204601F006FE002804D0606C2F70042860D05CE0618D09208002FF2905D9FE
:20330000FF22228501231B06009006E0618D21850090208D0123C2B25B062046049901F06C
:2033200053FE00960022042120460E9B01F05EFE00283DD12068416A606A421C626201703D
:20334000208D401E80B22085618D491E6185002821D1608D00281ED0009600228021204674
:203360000E9B01F043FE002822D1608DFF2807D9FF22228501231B06009708E02AE01AE0D3
:20338000608D20850097208D0123C2B25B062046049901F019FE608D0028C2D132462046CD
:2033A0000E9901F047FE002807D0606C042802D0032007B0F0BD0120FBE720682022C261F0
:2033C00020684168044B194041606A70AF702F700020EEE70220ECE700E800FEFFB505460C
:2033E00004464035687883B0202876D10C98002874D00D98002871D0287801286DD0012027
:203400002870FFF7C3FE0746012200901923D103204601F0EBFD002853D121206870402049
:20342000A870002666640C9860620D98608566630E980090019704A90EC9204601F08FFD96
:20344000002804D0606C2E7004286AD039E0608DFF2805D9FF22228501231B06009606E00C
:20346000608D20850096208D0123C2B25B062046049901F0A9FD3A4620460E9901F001FE67
:20348000002803D0606C04284BD01AE0606A411C6162216800788862608D401E6085208D72
:2034A000401E0004000C208524D1608D002821D000970022802120460E9B01F097FD0028E8
:2034C00002D0032007B0F0BD608DFF2807D9FF22228501231B06009608E024E021E0608D22
:2034E00020850096208D0123C2B25B062046049901F06AFD608D0028BDD13A4620460E9960
:2035000001F098FD0028BDD120682021C16120684268064B1A4042606970AE702E70002050
:20352000D0E70120CEE70220CCE7000000E800FE7047000010B5164C86B0E16A022001437E
:20354000E162E16A03900140059103210902002000910290122104200191049069460D4880
:20356000FFF75AFDA16B012040050143A163A16A0143A162A16A8143A16200221146172070
:2035800000F050F8172000F041F806B010BD0000001002400004005002480168491C0160F1
:2035A000704700004805002010B506480168022211430160032000F007F800F019F800205F
:2035C00010BD00000020024010B5044607487D21C9000068FCF78CFD00F064FD0022214639
:2035E000501E00F01FF8002010BD00007C00002070470000002805DBC106C90E0120884087
:20360000014908607047000080E100E0002805DBC106C90E01208840014908607047000008
:2036200000E100E010B507F021F910BDF8B5044653480E460068C007C00FB0420AD25048DC
:20364000016849084900314301600068C007C00FB0426FD120784B4F800705D5F868F0215E
:203660008843A1680843F8602078C00752D06068022817D0032818D03968012818D0890526
:20368000002957DAF968890889000143F960FFF77DFD05466068022812D003281CD00128E9
:2036A00026D033E039688903EAE739688901E7E74907E5E7FFF76AFD411B3348814223D8FC
:2036C000F8680007800F0228F4D123E0FFF75EFD411B2D48814217D8F8680007800F03280D
:2036E000F4D117E0FFF752FD411B274881420BD8F8680007800F0128F4D10BE0FFF746FD50
:20370000411B2148814201D90320F8BDF8680007800FF3D11A480168C907C90FB1420BD96B
:20372000016849084900314301600068C007C00FB04201D00120F8BD2078400706D5F86800
:20374000072109028843E1680843F8602078000707D5F8680721C90288432169C900084348
:20376000F86000F017F8F968084A0906090F515CC840074908600320FFF726FF0020F8BD98
:2037800000200240001002408813000040C400087C00002010B5194AD1680C2308461840FC
:2037A00004280BD0082810D00C2810D050680004410F0120C003491C884010BD1068C006B6
:2037C00001D50F4810BD0F4810BD0F4810BD88020E4B000F185C0902D368890F491CDB0320
:2037E00001D5094A05E01268D20601D5044A00E0044A5043FCF77CFC10BD000000100240FA
:2038000000093D000024F40000127A0050C40008F8B504460078FD4EC00749D0F0680007A9
:20382000800F022807D0F0680007800F032809D1F068C00306D53068800339D560680028F6
:2038400072D035E0012160680904884202D13068084310E0052301221B0492049842306838
:2038600002D110433060F2E788433060306808400090306890433060606800280CD0FFF731
:2038800085FC054604E0FFF781FC401B64287DD830688003F7D50BE0FFF778FC054604E05E
:2038A000FFF774FC401B6428F1D830688003F7D42078800741D5F0681F270007800F3F0262
:2038C000012807D0F0680007800F032809D1F068C00306D43068400717D5E068012823D1D0
:2038E00013E0E068002817D031680922914301433160FFF74BFC054604E0FFF747FC401B11
:203900000228C4D830684007F7D570682169B84309020843706010E0306840084000306013
:20392000FFF734FC054605E095E0FFF72FFC401B0228ACD830684007F7D42078C00672D543
:20394000F068B34F0007800F0AD0E06900283068B0495AD008433060FFF718FC054644E01D
:203960003068800502D5E069002874D0606A71683940884212D906F0A5FF0028AFD17068B3
:20398000616AB84308437060706800E0DEE00002218C000A0906084370600FE07168B94329
:2039A000014371607068218C0002000A090608437060606A06F086FF002890D1606A410B53
:2039C0000120C003491C8840F168934A0906090F515CC840914908600320FFF7F5FD22E075
:2039E000FFF7D4FB401B02288BD830688005F7D57068616AB843084370607068218C0002F1
:203A0000000A0906084370600DE088433060FFF7BDFB054604E0FFF7B9FB401B022888D8BE
:203A200030688005F7D420787D4D000723D560690028286910D0012108432861FFF7A6FB4E
:203A4000074604E0FFF7A2FBC01B02287ED828698007F7D50FE000E1400840002861FFF78C
:203A600095FB074604E0FFF791FBC01B02286DD828698007F7D42078400760D50020009012
:203A8000B06BC00006D4B06B012109070843B0630120009063480168C90510D4016882154F
:203AA00011430160FFF772FB074604E0FFF76EFBC01B64284AD85B480068C005F6D555489D
:203AC000A168814203D129690143296111E001229202002907D005231B02994203D12969B8
:203AE00011432961EFE7296981432961286990432861A06800280DD0FFF748FB074605E0CD
:203B0000FFF744FBC11B484881421FD828698005F6D50CE0FFF73AFB074605E0FFF736FBF9
:203B2000C11B4148814211D828698005F6D40098002804D0B06B012109078843B06320783D
:203B400080062FD53948A269411400E07EE0002AB26815D001231A43B260726B1A437263F1
:203B6000026A0A430262FFF711FB054604E0FFF70DFB401B022869D8B0688007F7D511E0D7
:203B800052085200B260026A8A430262FFF7FEFA054604E0FFF7FAFA401B022856D8B068F8
:203BA0008007F7D4A06A002855D0F1680907890F032952D001273F060228306805D0B8430E
:203BC0003060FFF7E3FA044642E0B8433060FFF7DDFA054604E0FFF7D9FA401B022835D834
:203BE00030688001F7D4216BE06AF2680843616BFD231B049A4311430843F060306838437C
:203C00003060FFF7C3FA044617E000000010024000E000000001000040C400087C00002045
:203C200040100240007000408813000000000140FFF7ACFA001B022808D830688001F7D5C0
:203C400009E0FFF7A3FA001B022801D90320F8BD30688001F5D40020F8BD0120F8BD70B53F
:203C6000040006D025464035687C0026002802D005E0012070BD2E74204600F033F802200E
:203C8000687420680168402291430160A168606822690843E16811430843616901220843F9
:203CA000A169520211400843E1690843216A0843A16A084321680860A0690421000C0840D6
:203CC000616A0843216848602168E06A08612068C16992009143C16166650120687400203F
:203CE00070BD0000F0B5414887B0C16A01242143C162C16A21400591C16A02263143C1624F
:203D0000C16A31400591C16A2143C162C16A21400591C16A2143C162C16A21400591C16A9E
:203D20002143C162C16A21400591C16A2143C162C16A21400591416B821411434163871530
:203D4000002505200194039569460007009704950294FFF761F90520002239460007FFF75D
:203D60000AFA082003270090019669460397029604951F48FFF750F94020009005200295FA
:203D800069460397019604950007FFF745F980200090052002956946039701960495000703
:203DA000FFF73AF905200194694600070397009604950294FFF730F905200122022100077A
:203DC000FFF7D9F90B4801A90094A1C10520694600070495FFF720F9002203210520FFF744
:203DE00021FC0520FFF712FC07B0F0BD001002400004005000001110F8B5044600206D4688
:203E00002880254640356E7C012E02D06E7C222E7ED100290CD0002A0AD0002B08D02E7CF0
:203E2000012E75D001262E746E7C012E02D003E00120F8BD32266E7400206065A263A38753
:203E4000E3872163A386E386A064E0640126A06A7603B04207D120680168B1430160206858
:203E600001683143016020680168490603D401684022114301600122D202FF21E0680531D8
:203E800057009042606862D1002804D088420CD1E08E012809D1206B21680088C860206B9B
:203EA000801C2063E08E401EE086E08E00283FD1A06AB04242D120680168394301603DE011
:203EC0002068C068A16B0880A06B801CA063A9E0002202212046069B06F050FE00287DD165
:203EE000206B21680088C860206B801C2063E08E401EE086E08E002806D1A06AB04203D1E5
:203F0000206801683943016000220121204600E0C6E0069B06F032FE00287BD12068C068B8
:203F2000A16B0880A06B801CA063E08F401EE087E08E0028CCD16068002876D10022012161
:203F40002046069B06F01AFE002863D1B8E7002804D088420BD1E08E012808D1206B411C57
:203F6000216321680078C860E08E401EE086E08E002841D1A06AB04203D12068016839437D
:203F80000160002201212046069B06F0F7FD002840D12068C068A16B087043E000220221B6
:203FA0002046069B06F0EAFD002833D1206B411C216321680078C860E08E401EE086E08EBC
:203FC000002806D1A06AB04203D12068016839430160002201212046069B00E01AE006F029
:203FE000CDFD002816D12068C168A06B421CA2630170E08F401EE087E08E0028CED1606827
:020000040800F2
:20400000002812D1002201212046069B06F0B6FD002801D00320F8BD2068C168A06B421CB6
:20402000A2630170E08F401EE087A06A0227B0420FD1002201212046069B06F09FFD0028CC
:2040400002D0606D38430FE02068C068694608800888012280212046069B06F08FFD00286B
:2040600004D0606D202108436065D3E701206874A06AB04211D120688168C943C9060CD48D
:20408000616D394361650168B1430160206801683143016000202874CAE600202874F8BDAF
:2040A0000220F8BD094910B5401E884201D9012010BD074C60610321081F06F0D7FB0020DB
:2040C000A06107202061002010BD0000FFFFFF0000E000E00168CA6852085200CA600068B4
:2040E000016A044A114203D101684908490001600020704711110000704770B504460068F5
:2041000001690025C9438907002915DBC168C943890711D4E91E0161012020752068806921
:204120008007204602D0FFF7E7FF04E000F0A0F8204600F039F9257520680169C943490708
:2041400017D4C168C943490713D40421C943016102202075206880698005800F204602D001
:20416000FFF7CAFF04E000F083F8204600F01CF9257520680169C943090716D4C168C943FF
:20418000090712D40821C9430161042020752068C0698007204602D0FFF7AEFF04E000F0F2
:2041A00067F8204600F000F9257520680169C943C90617D4C168C943C90613D41021C943D7
:2041C0000161082020752068C0698005800F204602D0FFF791FF04E000F04AF8204600F0D1
:2041E000E3F8257520680169C943C90708D1C168C943C90704D1891E0161204600F0D5F89D
:2042000020680169C943490609D4C168C943490605D44021C9430161204600F0EAF870BDE3
:2042200070B504462034237D012B0CD00125257502236375002A08D0042A0AD0082A0CD03E
:204240000C2A11D10DE0022070BD006806F0C1FF0AE0006806F0D5FF06E0006806F0EAFFA3
:2042600002E0006807F001F865750020207570BDF8B50446007D01260C4D0D4F012808D1F6
:204280000021204600F092F8E9684018396848632E62207D082808D10C21204600F086F8F1
:2042A00029694018396808646E62F8BD080000206406002070B5040005D025462035687D2D
:2042C000002802D006E0012070BD00202875204600F00AF802206875211D206806F046FF9B
:2042E00001206875002070BD10B50748816B012211438163002208210F20FFF793F90F20ED
:20430000FFF784F910BD00000010024010B502680446002906D0042907D0082914D00C2945
:2043200007D114E0D068022301E0D06804231843D0600122206806F041FF20680168012294
:2043400011430160002010BDD0680823EFE7D0681023ECE710B502680446002906D004299F
:2043600007D0082918D00C2907D118E0D068022301E0D06804239843D0600022206806F000
:204380001DFF2068016A074A114203D10168490849000160002010BDD0680823EBE7D068D8
:2043A0001023E8E71111000070477047024610B5134620331C7D0020012C0AD001241C753C
:2043C000002908D0042909D008290AD00C290DD10AE0022010BD1068406B07E01068806B72
:2043E00004E01068C06B01E01068006C0021197510BD704710B5411C0078042816D1087811
:20440000052814D03E2815D0FF280FD1C8788A78000210431D4A891C801825D0132805D1F8
:20442000487909790002084306F084FA10BDFEF7D9FC10BD8878891C0128FAD1C87889783A
:204440000002084312490122CA62888011480024046011488069002801D0FEF7D1FA0F482A
:2044600004600F48046010BD0B488A792030407A0B790128487905D000021843C91DFCF777
:20448000D7FC10BD000218430931F8E7FFF3FFFF480000200C000020FC06002044000020FC
:2044A0001000002070B50A4807F010FE0848083007F00CFE074D00248C206043411904485A
:2044C00007F013FE641CE4B2052CF5D370BD0000500500204009002008B50020009024E049
:2044E000154807F00EFE002802D0FDF78FFF08BD6946114807F011FE009880210830FDF7A8
:20450000DDFE0106090E06D000988822115400F041F8002804D00848009907F0DAFD04E065
:2045200005480099083007F0E0FDFDF76FFFFDF7A5FE0028D4D108BD5005002008B50020AC
:204540000090FEF715FB10E069460D4807F0E5FDFEF7D0FB00980830FFF74CFFFEF708FB30
:2045600007480099083807F0C0FD054807F0C9FD0028E9D0FFF7B0FFFEF7BCFB08BD00005E
:204580005805002010B5024807F0BBFD10BD0000580500200146027A0831042A01D001207A
:2045A00070478030007A8978C01E814201D0022070470020704738B504466B4601222021AB
:2045C00000F027FA00280DD16946087880210843694608706B4601222021204600F098FB84
:2045E000002800D0012038BD38B50446002069460870204600F048F9012805D06946207853
:204600000978884201D0012038BD002038BD38B504466B460122202100F0FBF900280CD11E
:20462000694608786B464006400E087001222021204600F06DFB002800D0012038BD38B571
:2046400015460C466B460122272100F0E2F9002801D0012038BD684600788007C00F2070AB
:2046600068460078C007C00F2870002038BD10B50B4601220F2100F0CCF9002800D001209A
:2046800010BD0000F3B583B06B4602223021039800F0BFF9002823D1684600786B464508C9
:2046A00068464078022246083621039800F0B1F9002815D1684600886B4604B202223A216C
:2046C000039800F0A6F900280AD1684600886B4607B202222821039800F09BF9002802D087
:2046E000012005B0F0BD6846008800B202902846FBF73AFE0190381BFBF736FE0746701B43
:20470000FBF732FE05460298001BFBF72DFE2946FBF7AFFD3946FBF7E9FD0199FBF750FD1D
:204720000A49FBF7A6FD0A49884202DD7D20C00008E0FF21C905C84201D3002002E0FBF790
:204740003EFE80B2049908800020CAE70000204100007A4438B50C46694600F01FF80128B8
:204760000CD06846007800280BD0012807D002280AD003280AD006482060012038BD7F20A8
:20478000C0052060002038BD0248FAE70248F8E7000080BF0000E0400000484138B50C4644
:2047A0006B460122202100F034F9002801D0012038BD694608788007800F0870207000204B
:2047C00038BD0000F3B585B06B4602223221059800F01FF900282BD101AB01223521059854
:2047E00000F017F9002823D16A46107912788107890D11430C2210406A465278800110439C
:20480000CD10C6106B4604223C21059800F001F900280DD1684600886B4604B26846408811
:20482000022207B22A21059800F0F3F8002802D0012007B0F0BD6846008800B20390284670
:20484000FBF792FD0290381BFBF78EFD0746701BFBF78AFD05460398001BFBF785FD294640
:20486000FBF707FD3946FBF741FD0299FBF7A8FC0449FBF7FEFCFBF789FD0699088000206A
:20488000D7E700000000204110B5FFF7F0FE012800D0002010BD10B5FFF7A6FE10BD10B579
:2048A00004468068006800684078002804D1204600F056F8012805D0A16800200968096894
:2048C0000870607110BD1CB50C4601AA6946FFF7B6FE012806D068460078002803D0012852
:2048E00001D001201CBD207000201CBD38B50C46002569460D80FFF7C5FE012808D068465C
:204900000088FBF73CFD0349FBF7F0FC2060284638BD00000000204110B5FFF71BFF10BDD4
:2049200010B5FFF7B1FF10BD10B504468068006800684078002804D1204600F051F80128FB
:2049400006D0A16801200968096808706071002010BD10B500F067F8012800D0002010BD45
:2049600010B504468079002810D0A06800680068C078002804D1204600F05EF8012805D070
:20498000A1680020096809688870A07110BD10B504468079012806D0A06800680068C0781F
:2049A000002802D006E0002010BD204600F04BF80128F9D0A1680120096809688870A0718A
:2049C000F1E710B500F08CF810BD10B500F09CF810BD10B500F0A6F9012800D0002010BDA9
:2049E00010B50446FFF700FE012811D02046FFF70EFE01280CD00121204600F02BF8012879
:204A000006D00021204600F06BF8012800D0002010BD10B51C461346224606F076FA00288A
:204A200000D0012010BD10B513460122FFF7F1FF012800D0002010BD10B5FFF7E8FD0128E2
:204A400000D0002010BD10B5FFF7B5FD012800D0002010BD38B50C460546012905D0002C91
:204A600003D00E490EA000F067F96B4601222021FFF7CFFF00280FD169460978FB200140A1
:204A8000A0000843694608706B4601222021284600F03EF9002800D0012038BD5F020000EB
:204AA0002E2E5C2E2E5C2E2E5C2E2E5C2E2E5C2E2E5C447269766572735C4253505C436F78
:204AC0006D706F6E656E74735C6874733232315C4854533232315F4472697665722E6300E6
:204AE00010B50B0006F078FC0504060606060D00012100E0032100F01DF8012800D000200A
:204B000010BD012010BD00007F2210B5D205914201DC012105E0064A914201DC022100E0E3
:204B2000032100F007F8012800D0002010BD00000000E04038B50C00054609D0012C07D03B
:204B4000022C05D0032C03D00D490EA000F0F4F86B4601222021FFF75CFF00280DD1694655
:204B600008786B46800880002043087001222021284600F0CDF8002800D0012038BD00008C
:204B8000B60200002E2E5C2E2E5C2E2E5C2E2E5C2E2E5C2E2E5C447269766572735C42533D
:204BA000505C436F6D706F6E656E74735C6874733232315C4854533232315F4472697665AA
:204BC000722E630010B5FFF70FFD10BD10B504468068006800680078002804D1204600F0AC
:204BE00057F8012805D0A1680020096809684870607110BD1CB50C466A4601A9FFF71FFD78
:204C0000012806D068460078002803D0012801D001201CBD207000201CBD10B5FFF79AFDA5
:204C200010BD000038B50C46002569460D80FFF7C9FD012808D06946485FFBF795FB034926
:204C4000FBF754FB2060284638BD00000000204110B5FFF719FE10BD10B5044680680068D1
:204C600000680078002804D12046FFF7B9FE012806D0A16801200968096848706071002090
:204C800010BD10B5FFF7CFFE012800D0002010BD10B504468079002810D0A06800680068F1
:204CA0008078002804D12046FFF7C6FE012805D0A168002009680968C870A07110BD10B5FB
:204CC00004468079012806D0A068006800688078002802D006E0002010BD2046FFF7B3FEE8
:204CE0000128F9D0A168012009680968C870A071F1E710B5FFF7F4FE10BD10B5FFF704FF5D
:204D000010BD10B500F00EF8012800D0002010BD10B51C461346224606F02AF9002800D02C
:204D2000012010BD07B502AB0122FFF7F1FF012800D000200EBD00000A46014601A006F001
:204D400027FBFEE757726F6E6720706172616D65746572732076616C75653A2066696C65B4
:204D6000202573206F6E206C696E652025640D0A00000000FEB50E4607461C461546642160
:204D8000684606F0FDFAE3B2EAB231463846FDF7E1FA002804D0684606F0E4FA0028F2D01B
:204DA000FEBDFEE73EB50C46084909680291019300920146012322460548FEF763FA0028F9
:204DC00002D000F031F801203EBD0000E40400209C0800203EB50C460849096802910193D2
:204DE00000920146012322460548FEF7F7FA002802D000F019F801203EBD0000E4040020FC
:204E00009C08002001688A69D243920701D400228A6200688169C943C90703D081690122D3
:204E2000114381617047000010B50448FEF7B4F90120FEF7C3F800F003F810BD9C08002085
:204E400010B500240B48FEF7BFF9002810D109480949016009494160332181600121C160F1
:204E6000002101614161C1610162FEF7B1F90446204610BD9C08002000540040563EA110CF
:204E8000F8B504460068174680690E46C043C0062CD42546403520688069C04380060FD592
:204EA000701CF8D0002E04D0FEF770F9C01BB042F1D9202068700020A87028700320F8BDE7
:204EC00021681020C86120682026C6612046FFF799FF20684168064A1140416004206064AC
:204EE0006E700020A87028700120F8BD0020F8BD00E800FEF8B504460120164640031D4659
:204F0000DAB20090079F0023204600F05DF83A462046069900F0B5F8002803D0606C0428EC
:204F20001BD018E02846F5B2012809D02168300A88623A462046069900F0A3F80028EDD1D4
:204F4000206885620097002240212046069B00F04DF8002800D00320F8BD0120F8BDF8B539
:204F600004460120164640031D46DAB2C3020090079F204600F028F83A462046069900F052
:204F800080F8002803D0606C04281BD018E02846F5B2012809D02168300A88623A46204619
:204FA000069900F06EF80028EDD1206885620097002280212046069B00F018F8002800D04E
:204FC0000320F8BD0120F8BD70B50068049D44688905890D1204044E11431943344029432D
:204FE0002143416070BD0000009800FCF8B51C4617460E46054611E0601C0FD0002C05D093
:20500000FEF7C4F80699401AA04207D92020403568700020A87028700320F8BD2868816975
:205020003046884304D00020B842E5D00020F8BD0120F9E770B516460D4604461AE0324626
:2050400029462046FFF71CFF002801D0012070BD002D04D0FEF79AF8801BA8420AD9616C66
:20506000202001436164403460700020A0702070032070BD20688069C0438006DFD40020C6
:2050800070BD70B516460C4605461CE0324621462846FFF7F5FE002801D0012070BD601CD0
:2050A00011D0002C04D0FEF771F8801BA0420AD9696C202001436964403568700020A870A6
:2050C0002870032070BD28688069C0438007DDD4002070BD10B503480349C069FCF719FB5B
:2050E00010BD0000FC0600200400002010B510490870FFF7A5FE002801D0FDF771FE05F01D
:2051000019FD002801D0FDF76BFE01210020FCF7B5FF0020FCF7D6FC44210548FBF72DF88C
:2051200000F0C0F8024800212030417210BD0000FC0600201FB5194817490068FAF7D8FFA5
:205140000122174992070A60164A401ECA6048600020086188600846FFF7ACF8002800D0E8
:20516000FEE730200090022002900F480190002269460B48FFF754F8002800D0FEE7FF206C
:20518000F53001900C2269460548FFF749F8002800D0FEE71FBD0000102700007C0000206C
:2051A00064060020FFFF00008813000070B537A003C88CB008910790FFF774F9FDF768F8E2
:2051C0000AA904A806F0D7FD6846007C01250026304C302801D9657200E06672FDF758F8AF
:2051E0002D4A2E495069000E087010694870128B000C120A8A70C8706846007C302801D9FE
:20520000832000E01F200871C020487106F032FD002838D1607A012818D009AB05AA06A967
:20522000012006F034FB00282DD11C4806F007FE002828D107A800906846818A072300223E
:20524000008B06F033FD00280BD0FEE709A905A80191009006AB07220021012006F055FBD2
:20526000E1E70F4810210022009102900723019603951146012006F088FB002803D104212E
:20528000012006F04DFD0CB070BD00004D453156333130001C0700204000F81F3C00002021
:2052A00040E20100F8B500203849C043FCF7AFFA364D01261C3D2C4600272034002803D0F3
:2052C000A07A002801D012E0A7726946E869FCF790FA68460078692809D0AF612146002408
:2052E000E4432046FCF721FB002802D0FEE7AE61F4E7264920460831FCF7A8FE002800D0AA
:20530000FEE7224920460839FCF7BAFB68688000411920460831FCF76BFF0028686801D17E
:20532000401C68608000411901200831FCF760FF002802D16868401C6860144920460C39CC
:20534000FCF70CFFE869002801D0FCF798FA286A002801D0FCF702FB686A002801D0FCF747
:205360007FFE6869002801D0FCF79EFBA868002801D0FCF775FFE868002801D0FCF770FF3F
:205380002869002801D0FCF715FFF8BD180700201CB50446FDF7FAFEC00869460871FDF79D
:2053A000F5FEC00A694648718C7101A800900C480323C1890022C08806F078FC00280ED0F4
:2053C00008480088800509D507A10E4805F0F0FF0D490860C1B20B4805F032FE47201CBDC7
:2053E000480000200C0000204572726F72205570646174696E67204C454420436861720D13
:205400000A000000640500203800002038B50446002069460870204600F024F9012805D0B2
:20542000694620780978884201D0012038BD002038BD10B50446FFF7E9FF012806D020468C
:2054400000F05AFA012801D00020607110BD3EB5054600200C4602906946284600F03EF8CB
:20546000012828D002A9284600F0D2F8012822D069460020085EFAF777FF0299FAF7F9FEFE
:20548000FAF784FF206069460220085EFAF76CFF02990D46FAF7EDFEFAF778FF60606946E4
:2054A0000420085EFAF760FF2946FAF7E2FEFAF76DFFA06000203EBD1CB50C46694600F098
:2054C0000DF8012809D068460088208068464088608068468088A08000201CBD1CB50C46A7
:2054E000002100910191694600F0F5F8002813D06946487809780002401820806946C878F8
:20550000897800024018608069464879097900024018A08000201CBD01201CBD38B50C46B2
:20552000694600F005F9002805D068460078002804D0082801D0012038BD012020700020C7
:2055400038BD000038B50C46694600F0E2F800280BD068460078002809D020280AD04028EA
:205560000DD060280DD008482060012038BD8120C00501E0412000062060002038BD034875
:20558000FAE78320C005F7E7000080BF0000404138B50C46694600F0DAF8002805D06846C9
:2055A00000788107890F02D01CE0012038BD8010030005F011FF0805070B0D0F111315174C
:2055C0000A4800E00A482060002038BD0948FAE70948F8E70948F6E70948F4E70948F2E7CC
:2055E0000948F0E709482060DFE700000000203F0000A03F000020400000A040000020410D
:205600000000A041000020420000A042000080BF38B50C46694600F07CF800280BD0684623
:205620000078002809D0202809D040280BD060280BD0074804E0012038BD064800E0064865
:205640002060002038BD0548FAE70548F8E70000000080BF295C0F3EE17A943EF628DC3EE5
:20566000E17A143F10B500F081F8002801D0002010BD012010BD10B50446FFF7C7FE012887
:2056800026D00221204600F0F0F8002821D04021204600F07EF800281BD00421204600F0DF
:2056A0007DF9012814D00021204600F046F901280ED04021204600F0A2F8002809D0002137
:2056C000204600F0ECF8002803D001206071002010BD012010BDF3B50227002481B0264636
:2056E00000250EE002980123021920462830C1B2019800F045F800280AD0641C6D1CE4B226
:20570000EDB2BD42EED3761CF6B2032EE8D30120FEBD10B50C460A460123212100F030F843
:20572000002804D02078602108402070012010BD10B50C460A460123272100F021F800288A
:2057400004D02078082108402070012010BD10B50C460A460123202100F012F8002804D02C
:2057600020781C2108402070012010BD10B50A4601230F2100F004F8002800D0012010BD53
:2057800010B505F0C2FB002801D0002010BD012010BD38B50C46054601236A462421FFF725
:2057A000EFFF00280FD068460278BF20024022436846027001236A462421284600F089F82E
:2057C000002800D0012038BD38B50C46054601236A462121FFF7D4FF00280FD06846027823
:2057E0009F20024022436846027001236A462121284600F06EF8002800D0012038BD38B54E
:205800000C46054601236A462021FFF7B9FF00280FD0684602789F20024022436846027073
:2058200001236A462021284600F053F8002800D0012038BD38B50C46054601236A462021FD
:20584000FFF79EFF00280FD068460278E320024022436846027001236A462021284600F049
:2058600038F8002800D0012038BD38B50C46054601236A462221FFF783FF00280ED069461C
:205880000878012380088000204308706A462221284600F01EF8002800D0012038BD38B51F
:2058A0000C46054601236A462021FFF769FF00280ED06946087801234006400E2043087010
:2058C0006A462021284600F004F8002800D0012038BD10B505F04CFB002801D0002010BD88
:2058E000012010BD10B50123FFF74AFF002801D0002010BD012010BD10B50446807900288E
:2059000007D002212046FFF7B0FF002802D00020A07110BD012010BD10B50446807901286B
:2059200007D000212046FFF7A0FF002803D00120A071002010BD012010BD10B5002907D0A7
:20594000022902D0042909D101E0202100E04021FFF73AFF002801D0002010BD012010BDDD
:20596000812210B5D205914201DC00210BE041221206914201DC202105E0074A914201DCDA
:20598000402100E06021FFF71FFF002801D0002010BD012010BD00000000404110B50B000C
:2059A00005F01AFD050406080A0A1100042104E0102102E0182100E01C21FFF73BFF0028D5
:2059C00001D0002010BD012010BD0000164A10B5914201DC00211EE0144A914201DC0421F4
:2059E00019E0134A914201DC082114E0114A914201DC0C210FE0104A914201DC10210AE038
:205A00000E4A914201DC142105E00D4A914201DC182100E01C21FFF70DFF002801D00020EC
:205A200010BD012010BD00000000203F0000A03F000020400000A040000020410000A041EB
:205A40000000204207B5012302AAFFF742FF002801D000200EBD01200EBD38B504460020FA
:205A600069460870204600F015FA012805D0694620780978884201D0012038BD002038BD0E
:205A800070B51446054600F081F9012806D02146284600F0D3F9012800D0002070BD1CB52B
:205AA0000C46694600F0F9F8012803D068464078207000201CBD1CB50C46694600F0EDF872
:205AC000012803D068460079207000201CBD1CB50C46694600F0E1F8012803D068468078DD
:205AE000207000201CBD38B50C46694600F0C2F8012803D0684600782070002038BD1CB5ED
:205B00000C46694600F0C9F8012803D068460078207000201CBD1CB50C46694600F0BDF8B1
:205B2000012803D06846C078207000201CBD10B500F0D6F8012800D0002010BD10B50029A3
:205B400005D0012907D0022909D0012010BD002100F0E6FA06E0002100F0FDFA02E000219B
:205B600000F014FB0128F1D0002010BD10B5002905D0012907D0022909D0012010BD012177
:205B800000F0CEFA06E0012100F0E5FA02E0012100F0FCFA0128F1D0002010BD10B5602967
:205BA0000DD006DC00290AD0202908D0402904D105E0802903D0E02901D0012010BD00F0AB
:205BC00000FB0128FAD0002010BD10B500F02EFB012800D0002010BD10B5002903D001293B
:205BE00001D0012010BD00F03BFB0128FAD0002010BD10B5002903D0012901D0012010BD36
:205C000000F0F9FA0128FAD0002010BD10B5002903D0012901D0012010BD00F021FB0128E2
:205C2000FAD0002010BD38B50C466B460122272100F005FA002801D0012038BD684600782E
:205C4000C107C90F6170022108402070684600788106C90FC006A170C00FE070002038BD48
:205C600010B50B4601220F2100F0E9F9002800D0012010BD38B50C466B460122142100F0CB
:205C8000DEF9002801D0012038BD694608784009400108702070002038BD38B50C466B4658
:205CA0000122262100F0CBF9002801D0012038BD684600780022C10921714106C90FE170A3
:205CC0008006800E01212070002803D06270202804D000E06170A270002038BDA170FBE74A
:205CE00010B50C460B460122142100F0A8F9002801D0012010BD2078C006C00E2070002090
:205D000010BD000038B50C46694600F02DF8012812D068460078302816D006DC00280ED05C
:205D200010280AD0202804D10CE040280ED050280ED008482060012038BD7F20C0052060E2
:205D4000002038BD0448FAE70448F8E70448F6E70448F4E7000080BF000020410000C841DD
:205D6000000048420000964238B50C466B460122102100F064F9002801D0012038BD684673
:205D80000078702108402070002038BD38B50C4600210091694600F00DF8012807D00098E0
:205DA000FAF7E2FA0249FAF7A1FA2060002038BD0000C84238B50C46694600F00EF8002894
:205DC00001D0012038BD009864214843C117090D081800132060002038BD38B50D4600241A
:205DE0006B460322282100F02AF9002801D0012038BD002069460A5CC3009A40401C1443DD
:205E0000C0B20328F7D3200202D5FF200006044300202C6038BD38B50C466B4602222B21B5
:205E200000F00DF9002801D0012038BD694648780978000240182080002038BD38B50C461F
:205E400000216A461180694600F010F8012809D069460020085EFAF787FA0349FAF746FA13
:205E60002060002038BD00000000204138B50C466946FFF7D0FF002801D0012038BD6946BB
:205E80000020085E0A2148436421FAF747F92080002038BD10B5FFF7E3FE012800D00020A6
:205EA00010BD000070B50C460546FFF7D6FD01282AD0164860600121284600F0C5FA0128E1
:205EC00022D00021284600F0A4FA01281CD00021284600F0E0F9012816D00021284600F0B8
:205EE000F5F9012810D00221284600F0FCF801280AD06978002901D0012904D1284600F0FB
:205F0000D7F8012800D0002070BD00000000C84110B5FFF7A2FD10BD70B50546806800687C
:205F200004686078002804D1284600F038F8012802D000202070687170BD38B50C466946F3
:205F4000FFF771FE012803D0684640782070002038BD10B5FFF7D6FE10BD10B5FFF716FFA9
:205F600010BD10B5FFF796FF10BD70B505468068006804686078002805D121462846FFF76A
:205F800091FF012803D0012020706871002070BD10B500F05EF8012800D0002010BD70B588
:205FA0000446806800680568A07900280BD0E878002805D10021204600F02BFA012802D0C9
:205FC0000020A870A07170BD70B50546806800680468A879012809D022462846616800F06D
:205FE000ABF9012803D00120A070A871002070BD10B5826883791268012B126805D000F0DA
:020000040800F2
:20600000C7F9012800D0002010BD00F0E1F9F8E710B5826883791268012B126805D000F0A1
:2060200071F9012800D0002010BD00F085F9F8E710B500F0C4FA012800D0002010BD10B5A5
:206040001C461346224604F060FF002800D0012010BD10B513460122FFF7F1FF012800D0C4
:20606000002010BD00B5104887B0C16A01221143C162C06A694610400590102000900B4859
:206080000190022003900020029005200007FCF7C3FF002211460720FDF7C4FA0720FDF7BA
:2060A000B5FA002007B000BD001002400000111038B50D4604466B4601221121FFF7BFFFE6
:2060C00000280ED169460A78EF2002402801104308706B4601221121204600F066FA00285F
:2060E00000D0012038BD38B50C4605466B4601221021FFF7A4FF002801D0012038BD6846D5
:206100000278FD2002402243684602706B4601221021284600F049FA0028EFD0002038BD7F
:2061200038B50D4604466B4601221221FFF787FF00280ED169460A78EF200240280110434D
:2061400008706B4601221221204600F02EFA002800D0012038BD38B50D4604466B460122D6
:206160001221FFF76CFF00280ED169460A78DF2002406801104308706B4601221221204671
:2061800000F013FA002800D0012038BD38B50D4604466B4601221221FFF751FF00280ED116
:2061A00069460A78F7200240E800104308706B4601221221204600F0F8F9002800D001203B
:2061C00038BD38B50C4605466B4601221421FFF736FF00280DD1694608786B46C006C00E92
:2061E0002043087001221421284600F0DEF9002800D0012038BD38B50D4604466B460122CB
:206200001121FFF71CFF00280ED169460A78BF200240A801104308706B4601221121204602
:2062200000F0C3F9002800D0012038BD38B50C4605466B4601221421FFF701FF00280DD115
:20624000694608786B46400940012043087001221421284600F0A9F9002800D0012038BD93
:2062600038B50D4604466B4601221121FFF7E7FE00280ED169460A78DF200240680110437E
:2062800008706B4601221121204600F08EF9002800D0012038BD38B50D4604466B46012237
:2062A0001021FFF7CCFE00280ED169460A78F7200240E800104308706B460122102120463E
:2062C00000F073F9002800D0012038BD38B50C4605466B4601221021FFF7B1FE00280ED119
:2062E00068460278FB2002402243684602706B4601221021284600F058F9002800D00120C7
:2063000038BD00007F20C005814209DD0648814206DD0648814203DD0548814200DD05485C
:206320005060002070470000000020410000C841000048420000964270B505467F20C00536
:206340001446814201DC10210FE00E48814201DC20210AE00C48814201DC302105E00B4885
:20636000814201DC402100E05021284600F051F8012806D0211D2846FFF7C4FC012800D0CA
:20638000002070BD000020410000C8410000484200B50B0005F020F80504070B0D0F1100A7
:2063A0007F20C00500E006485060002000BD0548FAE70548F8E70548F6E7012000BD00005C
:2063C000000020410000C841000048420000964270B5144605460B0004F0FEFF0504060814
:2063E0000A0C1900102106E0202104E0302102E0402100E0502100F00CF8012806D0211D1C
:206400002846FFF77FFC012800D0002070BD012070BD38B50C4605466B4601221021FFF784
:206420000EFE00280ED1684602788F2002402243684602706B4601221021284600F0B5F89B
:20644000002800D0012038BD38B50C4605466B4601221A21FFF7F3FD00280DD1694608787A
:206460006B46400840002043087001221A21284600F09BF8002800D0012038BD10B5FFF7F0
:20648000ECFA10BD70B505468068006804682078002804D1284600F038F8012802D00020DF
:2064A0006070687170BD38B50C466946FFF7BBFB012803D0684600782070002038BD10B5E0
:2064C000FFF720FC10BD10B5FFF7B8FC10BD10B5FFF7E0FC10BD70B5054680680068046811
:2064E0002078002805D121462846FFF7DBFC012803D0012060706871002070BD10B5FFF796
:20650000A8FD012800D0002010BD70B50446806800680568A07900280BD0A878002805D18A
:2065200000212046FFF775FF012802D00020E870A07170BD70B50546806800680468A8796C
:20654000012809D0224628466168FFF7F5FE012803D00120E070A871002070BD10B582682F
:2065600083791268012B126805D0FFF711FF012800D0002010BDFFF72BFFF8E710B5826890
:2065800083791268012B126805D0FFF7BBFE012800D0002010BDFFF7CFFEF8E710B500F01E
:2065A0000EF8012800D0002010BD10B51C461346224604F0DDFC002800D0012010BD07B598
:2065C00002AB0122FFF7F1FF012800D000200EBD10B5012100F0AEFA002800D0012010BDBC
:2065E00038B50446002069460870204600F0D0F8012805D0694620780978884201D001207D
:2066000038BD002038BD10B5002100F093FA002800D0012010BD38B50C466B4601222721CC
:2066200000F086F9002801D0012038BD68460078C007C00F2070684600788107C90F617039
:20664000C106C90F8006A170C00FE070002038BD10B50B4601220F2100F06AF9002800D01C
:20666000012010BD38B50C46694600F027F8012810D068460078202812D004DC00280CD0F2
:20668000102804D107E030280CD040280CD007482060012038BD7F20C0052060002038BDB0
:2066A0000348FAE70348F8E70348F6E7000080BF0000E040000048410000C84138B50C462C
:2066C0006B460122202100F033F9002801D0012038BD68460078702108402070002038BDD6
:2066E00038B50C46694600F00EF8002801D0012038BD009864214843C117090D08180013DE
:206700002060002038BD38B50D4600246B460322282100F00DF9002801D0012038BD00203C
:2067200069460A5CC3009A40401C1443C0B20328F7D3200202D5FF200006044300202C607C
:2067400038BD38B50C466B4602222B2100F0F0F8002801D0012038BD69464878097800020B
:2067600040182080002038BD38B50C466946FFF7E8FF002801D0012038BD6A460020302111
:20678000105EF9F7CBFCFF30AA302080002038BD10B5FFF75DFF012800D0002010BD10B554
:2067A0000446FFF71DFF012824D02046FFF72BFF01281FD00021204600F05EF9012819D0E2
:2067C0000121204600F030F9012813D00421204600F004F901280DD00121204600F0D0F94D
:2067E000012807D004220121204600F0C3F8012800D0002010BD10B5FFF7F2FE10BD10B51D
:2068000004468068006800684078002804D1204600F04EF8012805D0A1680020096809681C
:206820000870607110BD38B50C466946FFF7F3FE012803D0684640782070002038BD10B5A1
:20684000FFF710FF10BD000038B50C46002569460095FFF745FF012807D00098F9F784FD7B
:206860000249F9F743FD2060284638BD0000C84210B5FFF78DFF10BD10B50446806800683D
:2068800000684078002804D12046FFF788FF012806D0A16801200968096808706071002084
:2068A00010BD10B500F04EF8012800D0002010BD10B504468079002810D0A0680068006842
:2068C000C078002804D1204600F045F8012805D0A1680020096809688870A07110BD10B54C
:2068E00004468079012806D0A06800680068C078002802D006E0002010BD204600F032F8F9
:206900000128F9D0A1680120096809688870A071F1E710B500F0B0F810BD10B500F0C2F8FF
