:020000040800F2
:20000000A0190020D500000861940008E74B000800000000000000000000000000000000F3
:20002000000000000000000000000000179800080000000000000000B9940008899C000887
:20004000E7000008E7000008E7000008E7000008E7000008BF290008E7000008C92900081C
:20006000E7000008E7000008E7000008E7000008E7000008E7000008000000004D9D0008F4
:2000800000000000E70000080000000000000000E700000800000000E7000008E7000008A4
:2000A000E7000008E7000008E7000008E7000008E7000008E7000008E7000008E7000008C8
:2000C0000348854600F074FA0048004769AD0008A01900200448804704480047FEE7FEE7B6
:2000E000FEE7FEE7FEE7FEE7F99C0008C100000830B50B46014600202022012409E00D46C6
:20010000D5409D4205D31D469540491B2546954040191546521E002DF1DC30BD70B50024E3
:200120002546002801DA01244042002901DA01254942FFF7DDFFAC4200D04042002C00D0E7
:20014000494270BDF8B500242546002904DA0E46012400214042B141002B04DA1E46002306
:2001600052420125B34100F0A1F98C4617461E46AC4203D0002540428D41AC46002C02D08E
:20018000002657429E4161463A46334601B0F0BDF0B51FB486B000200090019002900698A4
:2001A000069980B204900798090C02040014114307900027089D099806913E463C46039084
:2001C0000398A9B20204000C039004982D0C154348430021224600F099F9C71971411034EB
:2001E0000E46402CECDB3846029A00F08FF9009A019B8018009059410298019110300290F0
:200200004028CCDB00980BB0F0BD10B503461C460C43A40703D009E010C9121F10C3042A9E
:20022000FAD203E00C781C70491C5B1C521EF9D210BDD2B201E00270401C491EFBD27047FD
:200240000022F6E710B513460A4604461946FFF7F0FF204610BD30B505460020034600E0F7
:200260005B1C934205D2EC5CC85C201A01D1002CF6D130BD034603220870000A491C521E3E
:20028000FAD518467047F8B502464A40D40F42004B0052085B089A4202D202460846114631
:2002A0004A0023D0C30D4A00DDB2120EAD1A202D35DA49020126490AF6058A19002C00D0B6
:2002C000524220214F1B1146B9402A411018C20D9A4221D0002C17D0012D08DCDA05801AC2
:2002E000D20F8019D207DBB200F028F9F8BDDA05801A012340001B06C01880185A428018B6
:20030000CA0F1043490007E04908C2071143DA05801A80194008801800F008F9F8BD61001A
:200320000122511A001BF7E70122D2075140AAE70122D2075040A6E7024670B54A40D30F26
:20034000DB0740002DD04A002AD0010E140E000212020919400A520A8418E50104465443C8
:20036000000A120A2E045043A4194219200CC543AA18120C0125AD03521C521912047F39E9
:20038000240400D0521C104301D44000491EC2B20C06C0092018401C4008802A02D003E09E
:2003A000002070BD40084000002900DA0020184370BD70B502464A40D50F40004A00ED0764
:2003C00040085208002814D0002A12D0C40DD30D41020120C0055202490A520AE41A091867
:2003E00012187D34914201D3641C00E04900002C01DA002070BD0023914201D3891A0343CB
:20040000400849000028F7D100290AD0914202D10121C90705E0914201D2012101E0012110
:20042000C943E005C018401900F080F870BDC217C10F504010B54018CA079623002100F014
:200440007DF810BD10B500229623114600F076F810BDC20F410040020123400ADB05D207BD
:20046000090EC0187F2901DA00207047962903DC9623591AC84001E096398840002AF4D0FB
:2004800040427047410040020122400AD205090E80187F2901DA00207047962903DC9622FD
:2004A000511AC8407047963988407047F0B51FB40646002082B005464024019100901BE0E2
:2004C000019922460F46304600F084F8049A059B801A994110D310461946224600F016F833
:2004E000361A8F410197224601200021009F00F00DF838184D4100902046641E0028DFDCCD
:20050000019B00982946324607B0F0BD10B5202A04DB0146203A9140002010BD91402023FB
:200520009C1A0346E3401943904010BD002904DA401C490001D140084000704770B400249B
:20054000050C05D11024000402D1002921D01124050E01D100020834050F01D10001241D0F
:20056000850F01D18000A41C002801DB4000641C002908D020252E1B0D46F540A14000D049
:2005800001212943084301061B1B000ADB1D02D5002070BC7047DB05181880180029F8DAC6
:2005A000401C4900F5D170BC4008400070470000064C0125064E05E0E36807CC2B430C3CE0
:2005C00098471034B442F7D3FFF77EFD04B1000824B1000810B5202A04DB0846203AD04087
:2005E000002110BD0B46D340D0402024A21A91400843194610BD70B58C180578401C6B073D
:200600005B0F01D10378401C2A1106D10278401C03E006780E70401C491C5B1EF9D12B07CA
:2006200005D40023521E0DD40B70491CFAE70378401CCB1A921C03E01D780D70491C5B1C71
:20064000521EF9D5A142D8D3002070BD1CB5044602F0BEFCC0086946087102F0B9FCC00A59
:20066000694648718C71200AC87101A800900C48042381890022C0880AF010F900280ED081
:2006800008480088800509D507A1114809F088FC10490860C1B20E4809F0CAFA47201CBD1A
:2006A000480000200C0000204572726F72205570646174696E67204163634576656E745FB8
:2006C0004E6F7469667920436861720D0A000000A40400203800002070B586B015460C46C4
:2006E000064602F075FCC0086946087102F070FCC00A694648713078887130880012C87127
:2007000030790872B08800124872307A887230890012C87264212068FFF700FD064620603D
:2007200064216068FFF7FAFC60606421A068FFF7F5FC6946A0600E73208814230012487370
:2007400020798873A08800220012C873207A08742089001248742878887428880012C87447
:2007600028790875A88800124875287A887528890012C87501A800900B484189C0880AF025
:2007800077FB00280ED009480088800509D508A1104809F005FC10490860C1B20D4809F028
:2007A00047FA472006B070BD480000200C0000204572726F72205570646174696E67204153
:2007C00063632F4779726F2F4D616720436861720D0A0000A404002038000020F0B58BB08A
:2007E0001B2769460F76C5204876D5208876A520C87602250D7700244C77B42088779A20CB
:20080000C877E12608A90E70112048700F208870CC701D4800900423012206A9099402206A
:2008200009F0BEFF00282CD169460F76C5204876D5208876A520C8760D774C773620887774
:20084000AC20C87708A90E70112048700F208870CC700D714C718C710B4BCC719B1C01226D
:200860001021052002AD0FC514200346009006480194203806AA0221008C09F039FF00289F
:2008800000D047200BB0F0BD68000020F0B58BB01B266A461676C5245476D5259576A52750
:2008A000D7760220107700205077B42191779A21D177E12108AA1170112151700E21917023
:2008C000D0700990354800900723012206A9022009F066FF00285ED169460E76C520487689
:2008E000D5208876A520C87602250D7700244C7736208877AC20C877E12708A90F701120A7
:2009000048700E208870CC70012008714C718C71CC71224A0490921C05921E2000901021E8
:2009200005231E480293039101942438142306AA0221808C09F0DCFE00282CD169460E76CE
:20094000C5204876D5208876A520C8760D774C7736208877AC20C87708A90F70112048703E
:200960000E208870CC700D714C718C710B4BCC711B1D01221021042002AD0FC51220009055
:20098000064801942438142306AA0221808C09F0AFFE002800D047200BB0F0BD6C00002009
:2009A000F0B58BB01B256A461576C5265676D5279776A524D4760220107700205077B421A4
:2009C00091779A21D177E12108AA11701121517001219170D07009907F480A4600900D2311
:2009E00006A9022009F0DCFE00287DD16846057646768776A521C176022101770024447784
:200A000036218177AC21C177E12108A801701121417001218170C470704B09946E48596866
:200A2000801F022902D0012909D011E008AA91790522114308AA91714178091D07E008AAC3
:200A400091790422114308AA91714178891C417059691A46002908D008AB997908231943E0
:200A600008AB99714178891C417011691022002906D008AB9979114399714178091D41704C
:200A8000554B10229B1C00210392059312220424049118460092019102940838437806AACB
:200AA0000221C08809F024FE00281DD16A461576C5205076D5209076A520D07602271777F7
:200AC0000020507736219177AC21D177E12108AA11701121517001219170D07010715071EE
:200AE000E0219171D07100E072E03B49102604900190091D0422009637480292059103967D
:200B0000801F142306AA0221C08809F0F1FD00285ED168460576C5214176D5218176A5212D
:200B2000C176022101770024447736218177AC21C177E12708A8077011214170012181708B
:200B4000C4700421047141718471C47122480291801D0590122000901F48039604940B4611
:200B60000194801F06AA0221C08809F0C1FD00282ED169460D76C5204876D5208876A520BB
:200B8000C876022008774C7736208877AC20C87708A90F701120487001208870CC700C7168
:200BA0004C718C712020C8710B490420083102900591122000900848039604940194801FB2
:200BC000032306AA0221C08809F092FD002800D047200BB0F0BD00004E0000203C060020B5
:200BE000F0B5C34D0520697A8BB0012900D107201B266F463E76C5247C76D521B976A5216B
:200C0000F97602233B7700217977B422BA779A22FA77E12208AF3A7011227A70BB70F97034
:200C20000991B449009141004318012206A902205B1C09F0B5FD00287ED169460E76C5204B
:200C40004876D5278F76A520C8760220087700244C7736208877AC20C877E12008A90870C0
:200C60001120487001208870CC700C7148718C71CC71A04A1020921C05920390009004211F
:200C80009C480291049401941038142306AA0221008A09F02DFD0028CED169460E76C520D2
:200CA0004876D5208876A520C876022008770020487736228A77AC22CA77E12208A90A706A
:200CC00011224A7001228A70C87010270F7148718871C87187490490891D059101901221CC
:200CE000844804240091039702941038032306AA0221008A09F0FCFC00289DD16A461676B1
:200D0000C5205076D5209076A520D076022010770020507736219177AC21D177E12108AA6A
:200D200011701121517001219170D0700821117150719071D07100E0D4E06E4A1021083277
:200D40000592039104900190042312216948029300911038032306AA0221008A09F0C8FC8A
:200D6000002899D169460E76C5204876D5208876A520C87602270F7700244C77362088772A
:200D8000AC20C877E12008A908701120487001208870CC700F714C718C71564ACC710A328D
:200DA00005921021042002AB13C312200090514801941038032306AA0221008A09F098FC7C
:200DC00000289AD168460676C5214176D5218176A521C1760777447736218177AC21C17742
:200DE000E12108A801701121417001218170C470017144718471C4713E4A10200C320390CC
:200E000005921220009004213A480291049401941038082306AA0221008A09F069FC0028BC
:200E200060D1687A012860D11B2069460876C5204876D5208876A520C876022008774C77E0
:200E400036208877AC20C877E12008A908701120487001268E70CC70402008714C718C712B
:200E6000CC7124491025091D04200095214F059103950494034601940290103F06AA0221EC
:200E8000388A09F035FC00282CD11B2069460876C5204876D5208876A520C876022008779F
:200EA0004C7736208877AC20C877E12008A90870112048708E70CC70202008714C718C714F
:200EC000CC7139461E310095042005910395049401940290032306AA0221388A09F008FCA9
:200EE000002802D047200BB0F0BD0020FBE700005C06002058000020F7B5FB4A0D46538A0C
:200F0000FC4C0146F94FFA4E9B1C206899422AD129780822012902D0002910D019E0104381
:200F200020600021F14803F013F9002801D001F079FE3868416AF04A8918416309E09043F1
:200F400020600021E94803F027F9002801D001F069FE2068C1053DD5000701D5E7A200E0B5
:200F6000E7A2E8A12EE0938A9B1C994233D1297801221203012902D0002910D019E0104374
:200F800020600021D94803F0E3F8002801D001F049FE3868416AD84A8918416309E0904322
:200FA00020600021D14803F0F7F8002801D001F039FE2068C1050DD5C00401D5CFA200E059
:200FC000CFA2D4A1D84808F0EBFFC1B23060D64808F05EFFFEBDD38A9B1C994230D1287868
:200FE0001025012802D0002813D01FE008F006FE2068082128432060BC4803F0A9F800285F
:2010000001D001F00FFE3868416AC84A8918C1630CE008F0D9FD20680821A8432060B3480E
:2010200003F0BAF8002801D001F0FCFD2068C105D0D5C00601D5B1A200E0B1A2BCA1C1E70E
:20104000D38B9B1C994231D1287801256D03012802D0002813D01FE008F0D0FD20680821ED
:2010600028432060A14803F073F8002801D001F0D9FD3868416AAD4A8918C1630CE008F093
:20108000A3FD20680821A8432060984803F084F8002801D001F0C6FD2068C1059AD5800457
:2010A00001D596A200E096A2A5A18BE7138B9B1C99422FD128782025012802D0002812D038
:2010C0001EE008F09BFD2068042128432060874803F03EF8002801D001F0A4FD3868416A1C
:2010E000C83181630CE008F06FFD20680421A84320607E4803F050F8002801D001F092FD31
:201100002068C10594D5800601D57CA200E07CA28FA157E7538B9B1C994230D128784025BC
:20112000012802D0002813D01FE008F067FD20680021284320606D4803F00AF8002801D017
:2011400001F070FD3868416A6B4A891841630CE008F03AFD20680021A8432060634803F01F
:201160001BF8002801D001F05DFD2068C10595D5400601D561A200E061A27BA122E7938B1B
:201180009B1C99422FD128788025012802D0002812D01EE008F032FD2068042128432060B6
:2011A000524802F0D5FF002801D001F03BFD3868416AC83181630CE008F006FD20680421F1
:2011C000A8432060494802F0E7FF002801D001F029FD2068C10595D5000601D547A200E0CE
:2011E00047A266A1EEE6538C9C469B1C994210D12978674A012901D0002900D11160C0057A
:20120000B5D51068002801D03CA200E03CA261A1D8E653899B1C99422BD12978042201291C
:2012200002D0002911D01AE0104320600C212F4802F08EFF002801D001F0F4FC3868416ABD
:20124000584A12688918016409E0904320600C21264802F0A1FF002801D001F0E3FC2068B2
:20126000C10584D5400701D524A200E024A24EA1A8E693899B1C994218D12978012292025A
:20128000012902D0002903D006E01043206003E09043206001F0D6FA2068C1059BD54005A3
:2012A00001D516A200E016A245A18BE613899B1C994217D12978012902D0002913D096E07C
:2012C0000121084320600021084802F041FF002801D001F0A7FC3868416A3E4A1268891803
:2012E000416384E08EE077E048000020A4050020380000200C000020881300004F4E000034
:201300004F4646002D2D2D3E5175617465723D25730D0A002D2D2D3E45436F6D70617373EF
:201320003D25730D0A000000A4040020710200002D2D2D3E4163745265633D25730D0A00A3
:201340002D2D2D3E496E744465743D25730D0A002D2D2D3E4361727279506F735265633D45
:2013600025730D0A000000002D2D2D3E476573747572655265633D25730D0A002D2D2D3E4F
:201380004163635065646F3D25730D0A00000000100000202D2D2D3E43616C69623D25732D
:2013A0000D0A0000180000202D2D2D3E4163632F4779726F2F4D61673D25730D0A00000012
:2013C0002D2D2D3E4163634576656E743D25730D0A000000140000204008400020600021F6
:2013E000344802F0D9FE002801D001F01BFC2068C10500D4EEE5C00701D02FA200E02F4AF0
:201400002FA1DFE5138D9B1C994208D10122297852020BE00029EDD190432060FEBDD38CD6
:201420009F1CB94206D12978FF2201320129F1D11043F2E75B1C994208D12846029901F0ED
:201440007FF80028EAD028460299C1E5D289921C914219D129780222012902D0002907D0FD
:2014600008E0104320601A48007A03F0A3FE01E0904320602068C105D0D5800701D50EA20D
:2014800000E00E4A13A19DE56246521C914204D12846029900F0E2FEFEBD8005FCD511A184
:2014A000184808F07DFDC1B23060164808F0C0FBFEBD0000A40500204F4E0000001300080A
:2014C0002D2D2D3E456E763D25730D0A000000005C0600202D2D2D3E4C65643D25730D0AEA
:2014E000000000004E6F74696669636174696F6E20554E4B4E4F572068616E646C650D0A60
:2015000000000000A4040020002809D00169002906D002786A2A03D1496F002900D00847B7
:2015200001207047002809D00169002906D002786A2A03D1896D002900D008470120704771
:20154000002809D00169002906D002786A2A03D14968002900D0084701207047002809D06D
:201560000169002906D002786A2A03D14969002900D0084701207047002809D001690029BA
:2015800006D002786A2A03D1C96C002900D0084701207047002809D00169002906D002785A
:2015A0006A2A03D1096B002900D0084701207047002809D00169002906D002786A2A03D1E3
:2015C000C96B002900D0084701207047002809D00269002A06D003786A2B03D1126F002ABC
:2015E00000D0104701207047002809D00269002A06D003786A2B03D1526D002A00D010478C
:2016000001207047002809D00269002A06D003786A2B03D11268002A00D0104701207047FF
:20162000002809D00169002906D002786A2A03D10969002900D0084701207047002809D0CB
:201640000269002A06D003786A2B03D1926C002A00D0104701207047002809D00269002A7E
:2016600006D003786A2B03D1D26A002A00D0104701207047002809D00269002A06D0037864
:201680006A2B03D1926B002A00D010470120704700280BD00269002A08D0002906D00378D1
:2016A0006A2B03D1926F002A00D010470120704700280CD00269002A09D0002907D00378AA
:2016C0006A2B04D180321268002A00D010470120704700280BD00269002A08D0002906D0DC
:2016E00003786A2B03D1D26F002A00D010470120704700280CD00269002A09D0002907D02A
:2017000003786A2B04D180329268002A00D010470120704700280CD00269002A09D0002974
:2017200007D003786A2B04D180325268002A00D010470120704700280CD00269002A09D0E6
:20174000002907D003786A2B04D180321269002A00D010470120704700280CD00269002AB5
:2017600009D0002907D003786A2B04D18032D268002A00D010470120704710B500280AD0CF
:20178000C268002907D09269002A04D09047012800D0002010BD012010BD00280BD002690D
:2017A000002A08D0002906D003786A2B03D1D26D002A00D010470120704700280BD002696E
:2017C000002A08D0002906D003786A2B03D19268002A00D010470120704710B500280AD03A
:2017E000C268002907D0526A002A04D09047012800D0002010BD012010BD00280BD00269EC
:20180000002A08D0002906D003786A2B03D19269002A00D010470120704710B500280AD0F8
:20182000C268002907D0126A002A04D09047012800D0002010BD012010BD00280BD00269EB
:20184000002A08D0002906D003786A2B03D1126D002A00D010470120704700280BD002698D
:20186000002A08D0002906D003786A2B03D1D269002A00D010470120704700280BD00269B1
:20188000002A08D0002906D003786A2B03D1526B002A00D010470120704700280BD002690F
:2018A000002A08D0002906D003786A2B03D1126C002A00D010470120704710B500220C4663
:2018C0000A6000280AD00128084604D000F07EFA012808D1204600F001FA02E0084600F076
:2018E00075FA012800D0002010BD70B5050019D02C69002C16D028786A2813D1216A00290F
:2019000010D0606A00280DD028468847012808D00A2001F075FA616A28468847012800D04F
:20192000002070BD012070BD10B5002808D0C1688968002904D08847012800D0002010BD7B
:20194000012010BD10B5002808D0C268926B002A04D09047012800D0002010BD012010BD04
:20196000002809D00269002A06D003786A2B03D1D268002A00D010470120704710B50028C7
:2019800008D0C268D26A002A04D09047012800D0002010BD012010BD002809D00269002ACA
:2019A00006D003786A2B03D1126E002A00D010470120704710B500280AD0C268002907D0D3
:2019C0009269002A04D09047012800D0002010BD012010BD10B5002208460A6000F036FAA4
:2019E000012800D0002010BD10B5002808D0C1688968002904D08847012800D0002010BD70
:201A0000012010BD70B5184C05466079012821D008F070F801281DD0BC2020700026667033
:201A2000BE20A07026716671A6710120E0710F4823460F49083343C30E4A011F0A6042C084
:201A40002C60E16820460968002904D08847012807D0002070BD1421FEF7F2FB01202E60FB
:201A600070BD2868F7E70000CC0600204C04002080000020E800002070B5184C0546607914
:201A8000012822D008F036F801281ED0BC20207000266670BE20A07026716671A6710120F2
:201AA000E0712046234628300D49083343C30E490C4A0A6042C02C60E16820460968002929
:201AC00004D08847012807D0002070BD1421FEF7B7FB01202E6070BD2868F7E708070020C1
:201AE000B4000020E80000206C04002010B500280AD0C268002907D09269002A04D09047B9
:201B0000012800D0002010BD012010BD10B5002208460A60FFF776FF012800D0002010BD01
:201B2000002805D0002903D040790870002070470120704710B5002808D0C16889680029C4
:201B400004D08847012800D0002010BD012010BDF0B50F4987B0CA6A01231A43CA62C96AC6
:201B60000C4E194045000591715B0091002102910321094F0391019384003859694601F06D
:201B80006DF9715B3859002201F017FA07B0F0BD00100240B2B000087404002010B5054A92
:201BA0004100515A044A80001058002201F005FA10BD0000B2B000087404002010B5054A0E
:201BC0004100515A044A80001058012201F0F5F910BD0000B2B000087404002070B5194C88
:201BE00005466079012824D007F084FF012820D0B120207000266670BA20A070267166715C
:201C0000A6710120E0711149E1600F48A06010492161104A011F0A6042C02C60E16820464D
:201C20000968002906D08847012809D003F004FE002070BD1421FEF703FB01202E6070BD1D
:201C40002868F7E7F406002064040020EC00002054010020CC01002070B51B4C0546607E51
:201C6000012828D007F046FF012824D0B120207500266675BA20A075012020766676A676E5
:201C8000E07620463030E061104820621048606211491048086020462830C66081601438C8
:201CA0002860C1680968002906D08847012809D003F0C2FD002070BD1421FEF7C1FA01202D
:201CC0002E6070BD2868F7E7080700202001002090010020CC0100207004002070B51A4CAE
:201CE0000546607E012825D007F004FF012821D033202075002666753220A0750120207682
:201D00006676A676E07620463030E0610F486662206210490E48086020462830C6608160F1
:201D200014382860C1680968002904D08847012807D0002070BD1421FEF782FA01202E60C7
:201D400070BD2868F7E7000080060020D4010020240200203004002070B5184C0546607906
:201D6000012821D007F0C6FE01281DD040202070002666703C20A07026716671A67101207A
:201D8000E0710F4823460F49083343C30E4A011F0A6042C02C60E16820460968002904D00C
:201DA0008847012807D0002070BD1421FEF748FA01202E6070BD2868F7E70000E00600204B
:201DC00058040020280200202402002070B51A4C05466079012825D007F08CFE012821D08F
:201DE0006A20207000266670D620A07026716671A6710120E07111492046E1602830A06077
:201E00000F49216110490F4A0A6042C02C60E16820460968002906D08847012809D006F058
:201E2000D3FA002070BD1421FEF70AFA01202E6070BD2868F7E700008006002080030020C7
:201E400070020020200400202804002070B51A4C05466079012825D007F04CFE012821D038
:201E60006A20207000266670D620A07026716671A6710120E0711249E1601048A060114901
:201E800021610146104A08310A6042C02C60E16820460968002906D08847012809D006F008
:201EA00093FA002070BD1421FEF7CAF901202E6070BD2868F7E70000B806002038040020D7
:201EC000D0030020440300202004002010B500280AD0C268002907D09269002A04D09047A3
:201EE000012800D0002010BD012010BD10B5002208460A60FFF730FF012800D0002010BD64
:201F000010B5002808D0C1688968002904D08847012800D0002010BD012010BDF0B5044653
:201F2000284887B0C36A04221343C362C36A13400593426B01231A43426300236200224D4D
:201F4000A000224E00291DD0012926D1A95A00911F49019102933058694600F07FFF2F1F24
:201F60003957FF26C025002919DB8A0819489200121813688807C00E8640B34385402B4334
:201F800013601BE0A95A0091022102910321039101933058694600F061FF07B0F0BD080743
:201FA000000F083882080C4892001218D3698807C00E8640B34385402B43D361385701F0FC
:201FC00047FAEAE700100240B4B00008780400200000111000E400E000ED00E010B50028F6
:201FE0000AD0C268002907D09269002A04D09047012800D0002010BD012010BD10B5002252
:020000040800F2
:2020000008460A60FFF7EAFD012800D0002010BD002805D0002903D0407908700020704744
:202020000120704710B5002808D0C1688968002904D08847012800D0002010BD012010BD49
:2020400010B500280AD0C268002907D09269002A04D09047012800D0002010BD012010BDEB
:2020600010B500220C460A6000280AD00128084604D0FFF701FD012808D12046FFF7ECFD35
:2020800002E00846FFF7F8FC012800D0002010BD002805D0002903D040790870002070473F
:2020A0000120704710B5002808D0C1688968002904D08847012800D0002010BD012010BDC9
:2020C00010B505200121000700F072FF012800D0002010BD70B5FF24052501342D070022A9
:2020E0002146284600F069FF052000F089FE01222146284600F061FF052000F081FE70BD0E
:20210000F0B587B00F460646FF20694608731FA003C8059000240691052022460221000768
:2021200000F04BFF0F200090052301AA05A9194801F084FD69460879022817D1087AC9794C
:2021400005020D4312D0BD4200D93D460F270BE0012304AA03A90F48009701F06FFD684653
:20216000007C3055641CE4B2AC42F1D3052001220221000700F021FF0020009000BF401C49
:2021800000900228FADB204607B0F0BD0B000000000000008C070020FFB5C7B0002427A012
:2021A000059403C80390049126A003C801901E4615460291052001F03FF905200022022167
:2021C000000700F0FAFE0F27052301AA03A91F48009701F033FD0598002801D008F00CFFA3
:2021E0006846007902280DD00024E443052001220221000700F0E1FE052001F029F9204687
:202200004BB0F0BD68464079A919884212D3002D06D02B4606AA00970C48479901F00EFD53
:20222000002EE3D0334606AA00970848489901F005FDDBE70124E443D8E700000A00000002
:2022400000000000AA000000000000008C070020014901204861704700040140F8B5C1782B
:202260008278090211434ABA4178012609040A430178704F09060A43057944793105531A55
:2022800038688A420ED010DC6B4FD11B2CD03F239B02C91A06D003231B04C91A02D03B0277
:2022A00099424ED1FF2DFCD1A0E0591A71D001235B05C91AFAD05B00C91AF7D03F23DB057F
:2022C0009942EED1C0050AD52B465CA1614807F067FE61490860C1B25E4807F0D9FD002D28
:2022E00074D0012D7AD16EE0C0050BD52B465BA15848009407F054FE57490860C1B255482C
:2023000007F0C6FD702D31D006DC642D1AD0662D09D06F2D15D14AE0732D1DD0742D3CD0B6
:20232000772D0ED12EE0002C04D0012C7FD100F071FB01E000F0AEFA22462946384600F075
:20234000B3F874E0002C04D0012C70D100F046FBF2E700F05FFAEFE7002C04D0012C66D183
:2023600000F0A2FBE8E700F0DDFAE5E7002C06D0012C5CD100F082FB07F0CCF9DCE700F036
:20238000B9FAD9E7002C05D0012C50D100F0BCFBD2E741E000F0F6FACEE7002C04D0012C38
:2023A00045D100F099FBC7E700F0D4FAC4E7002C04D0012C3BD100F049FBBDE700F082FAEF
:2023C000BAE703E00AE006F0D3FF01E006F0C6FF012022462946400700F066F83878800767
:2023E00025D52548007A02F0E5FE20E02349002C03D07D23DB00634315E0214B13E02B46D6
:2024000020A11448009407F0CBFD13490860C1B2104807F03DFD09E0FF2D08D12149002C08
:20242000E7D1FF23F5330B60C005E8D400263046F8BD00000C00002000040000436F6E66A7
:202440002053696720463D256C7820433D2532780A0D0000A404002038000020436F6E6661
:202460002053696720463D256C7820433D256320443D25780D0A00005C060020140000203A
:2024800088130000436F6E662053696720463D256C7820433D25327820446174613D25328F
:2024A000780A0D0018000020FEB515460E46044600F08EFDC0086946087100F089FDC00AFE
:2024C000694648714C72200A0872200CC871200E88718E72CD7201A800900C480823418CE2
:2024E0000022008C08F0DAF900280ED008480088800509D507A1104807F052FD0F4908601C
:20250000C1B20D4807F094FB4720FEBD480000200C0000204572726F722055706461746926
:202520006E6720436F6E66696775726174696F6E20436861720D0A00A40400203800002079
:20254000F0B5044601468BB00125042262A0FDF782FE634E002803D02078702803D005E0B4
:20256000002560A140E06078722839D0042221466AA0FDF770FE00283FD02278752A72D0EF
:2025800000216078692870D000231940A378642B6DD0002319426CD062486349027A0988F1
:2025A000437A847A0905090D0794089309920A918179C47A0379427903AD1EC54178C379D9
:2025C00002786C460EC48378C27858A1664807F0E7FCC1B23060644807F05AFC002568E0DE
:2025E00007F098F8002561A15F4807F0D9FCC1B230605D4807F04CFC5BE030213120019164
:2026000000900025332361A26449574807F0C8FCC1B23060544807F03BFC00F0D5FCC0B2A5
:20262000009000F0D1FC0004070E00F0CDFC0002040E00F0C9FC020E009859A15BA302937D
:2026400003910190009723465BA1474807F0A8FCC1B23060444807F01BFC02E003E004E0E9
:2026600005E062A1C0E701218BE701238DE7012390E7402A1DD10122FF2632230021542872
:2026800002D0412818D014E006256F463970042016E04D2808D101E07B7105E00A2078716D
:2026A00002E07A7100E0797129463846FFF7D6FD054628460BB0F0BD06256F463970802083
:2026C0007870B970F9703E71A0784428EBD04828E7D04C28E0D0DCE768656C7000000000DB
:2026E00038000020436F6D6D616E643A0D0A70722D3E4857207065646F6D6574657220720F
:20270000657365740D0A696E666F2D3E2053797374656D20496E666F0D0A0000696E666FC6
:20272000000000005000F81F002004E0252E3258252E3258252E3258252E3258252E3258DD
:20274000252E3258252E3258252E3258252E3258252E3258252E3258252E32585F252E3389
:202760006C580D0A00000000A40400205065646F6D6574657220485720636F756E74657232
:202780002072657365747465640D0A0046502D534E532D4D4F54454E56310000B8B0000844
:2027A00031323A35303A3035000000004A756C203132203230313700092848414C20256C29
:2027C000642E256C642E256C645F256C64290D0A09436F6D70696C656420257320257320F5
:2027E000284B45494C290D0A00000000436F646520636F6D70696C656420666F7220582D58
:202800004E55434C454F2D494B53303141320D0A0000000010B5094CA06900280DD0E06982
:20282000FEF780FE0649012803D00868042290430860E0694968FFF7A1F810BD3C06002051
:202840000000002010B5124C2078C00701D000F051F82078800701D500F01CF820784007F4
:2028600001D5FFF7D7FF2078000701D500F05AF82078C00601D500F085F82078800601D56A
:2028800000F068F82078400601D500F01BF810BD0000002010B5094CA06900280DD0E069D3
:2028A000FEF74EFE0649012803D00868022290430860E0694968FFF761F810BD3C06002045
:2028C0000000002010B5094CA06900280DD0E069FEF71AFE0649012803D00868402290436A
:2028E0000860E0694968FFF749F810BD3C0600200000002010B5094CA06900280DD0E0697F
:20290000FEF72CFE0649012803D00868400840000860E0694968FFF731F810BD3C060020A5
:202920000000002010B5094CA06900280DD0E069FEF722FE0649012803D008680822904339
:202940000860E0694968FFF719F810BD3C0600200000002010B5094CA06900280DD0E0694E
:20296000FEF718FE0649012803D00868202290430860E0694968FFF701F810BD3C060020FC
:202980000000002010B5094CA06900280DD0E069FEF70EFE0649012803D0086810229043E5
:2029A0000860E0694968FEF7E9FF10BD3C0600200000002010B5052000F03EFD10BD10B5E2
:2029C000012000F03FFA10BD10B50120400300F039FA202000F036FA10BD000010B50B4C4B
:2029E000A069002810D0FFF72DFF0021E069FEF7FBFD012804D006480422016811430160BE
:202A00001021E069FEF7C8FF10BD00003C0600200000002010B50B4CA069002810D0FFF70E
:202A200011FF0021E069FEF7EDFD012804D0064802220168114301600221E069FEF790FFC0
:202A400010BD00003C0600200000002010B5094CA06900280CD0FFF7F5FE0021E069FEF7B8
:202A6000B5FD012804D00448402201681143016010BD00003C0600200000002010B5084C73
:202A8000A06900280BD0FFF7DDFEE069FEF7C8FD012804D00348012201681143016010BD00
:202AA0003C0600200000002010B5094CA06900280CD0FFF7C7FE0021E069FEF7BFFD01286E
:202AC00004D00448082201681143016010BD00003C0600200000002010B5094CA0690028F4
:202AE0000CD0FFF7AFFE0021E069FEF7B5FD012804D00448202201681143016010BD0000D0
:202B00003C0600200000002010B5094CA06900280CD0FFF797FE0021E069FEF7ABFD012851
:202B200004D00448102201681143016010BD00003C0600200000002010B5052000F088FC78
:202B400010BD0000F0B585B01F4615460E46044600F03EFAC0086946087100F039FAC00A6B
:202B600069464871214902200B6901AA002B08D06B469C712012D87120141872200E587250
:202B800006204B69002B04D01654330A14186370801C4C683B041B0EF9B2022C02D0012C26
:202BA00005D007E015542C1215186C70801C1154101843700E480092437801890022C08836
:202BC00007F06CFE00280ED00A480088800509D509A1124807F0E4F911490860C1B20F48ED
:202BE00007F026F8472005B0F0BD00003C060020480000200C0000204572726F7220557012
:202C0000646174696E6720456E7669726F6E6D656E74616C20436861720D0A00A40400203E
:202C200038000020FEE7000010B51C4800240121C46201701A4804601A488069002801D047
:202C4000FFF700FE18480021046018480460184801F0A2FA002801D0FFF7E4FF0821144893
:202C600001F09AFA002801D0FFF7DCFF0421104801F092FA002801D0FFF7D4FF0C210C48C8
:202C800001F08AFA002801D0FFF7CCFF094801F043F9002801D0FFF7C5FF10BD480000209F
:202CA0000C0000203C0600204400002010000020A4050020DC050020F0B5474D0024A869BA
:202CC00087B0002837D0002168460170017101720173017401756946E869FEF7FAFC01A975
:202CE000E869FEF7E5FC02A9E869FEF713FD03A9E869FEF7FEFC04A9E869FEF72DFD05A9F5
:202D0000E869FEF718FD68460278037A15461D43017CAC460D4300792E46054307D16F4677
:202D20003F7B012F03D16F463F7D002F02D0012A02D00FE004244BE0002B0BD1002909D11A
:202D4000002807D16F463F7B002F03D16F463F7D002F02D0002E02D00BE0012438E001283E
:202D600007D16E46367B002E03D16E46367D002E02D0002A02D00FE0032429E0012B0BD18A
:202D8000002909D1002807D16A46127B002A03D16A46127D002A04D06A46127B154302D051
:202DA00005E0022414E06B461B7D012B03D06346002B02D00CE005240AE0012908D10028FC
:202DC00006D1002A04D16846007D002800D10624204607B0F0BD00003C06002008B50020C6
:202DE0006946088005488169002903D0C0696946FEF733FD6846008808BD00003C0600200F
:202E000031B500F0E5F8044600E030BF00F0E0F80099001B8842F8D338BD000070B5012595
:202E2000074C012806D0202808D06903884200D1656170BD01F072FAE56170BDA56170BD23
:202E40000800002010B504494A69024202D04861FFF7E4FF10BD000000040140F0B5002214
:202E600092E001249440A44623407DD04C68022C01D0122C0CD1D408A40027183D6A5407BE
:202E8000E40E0F26A640B5430E69A6402E433E624C68012C05D0022C03D0112C01D0122CBC
:202EA00011D1856854000326A640B543CE68A6402E43866044686546AC430D79ED06ED0FBA
:202EC000954025434560076854000325A5400E79AF43B607B60FA6403E430660C668AE4359
:202EE0008D68A5403543C5604C68E4004BD5294D6C6B012634436C639508274CAD002F19E4
:202F0000BD689407240F0F26A640B54305263607B04201D1002614E0204EB04201D101260C
:202F20000FE01F4EB04201D102260AE01D4EB04201D1032605E01C4EB04201D1052600E0E9
:202F40000626A6402E43BE60184D2C684E689C43F60300D51C432C606C684E689C43B60367
:202F600000D51C436C6000E00DE0AC684E689C43F60200D51C43AC60EC684E689C43B60202
:202F800000D51C43EC60521C0B681C46D44000D067E7F0BD001002400000014000040050A8
:202FA00000080050000C0050001C0050000401400069084000D001207047002A01D0816176
:202FC0007047816270470000004870470001080101480068704700008804002070B504005A
:202FE00012D0242025464035687020680168490849000160204600F0BDF90020606468703F
:203000002063A870287070BD012070BD403040787047000070B5040006D025464035687864
:203020000026002802D005E0012070BD2E70204600F0A2F924206870206801684908490007
:2030400001600F2160680906884321680861206882680121C9038A438260E0680128A068C3
:2030600008D021229202104322689060E068022802D005E00843F7E701202268C002506065
:20308000206842680F4B1A4342602068C2688A43C260616920690843A1690902084321687D
:2030A000C860216AE069084321680860206801680122114301606664202068702663AE7086
:2030C000002070BD00800002FFB5054604464035687883B0202873D10C98002871D00D9812
:2030E00000286ED0287801286AD001202870FFF76FFF0646012200901923D103204601F0E4
:2031000097FE002876D1222068704020A870002767640C9860620D98608567630E98009037
:20312000019604A90EC9204601F006FE002804D0606C2F70042860D05CE0618D0920800281
:20314000FF2905D9FF22228501231B06009006E0618D21850090208D0123C2B25B062046B6
:20316000049901F053FE00960022042120460E9B01F05EFE00283DD12068416A606A421CA6
:2031800062620170208D401E80B22085618D491E6185002821D1608D00281ED00096002208
:2031A000802120460E9B01F043FE002822D1608DFF2807D9FF22228501231B06009708E092
:2031C0002AE01AE0608D20850097208D0123C2B25B062046049901F019FE608D0028C2D169
:2031E000324620460E9901F047FE002807D0606C042802D0032007B0F0BD0120FBE7206839
:203200002022C26120684168044B194041606A70AF702F700020EEE70220ECE700E800FE67
:20322000FFB5054604464035687883B0202876D10C98002874D00D98002871D02878012847
:203240006DD001202870FFF7C3FE0746012200901923D103204601F0EBFD002853D12120E5
:2032600068704020A870002666640C9860620D98608566630E980090019704A90EC920469D
:2032800001F08FFD002804D0606C2E7004286AD039E0608DFF2805D9FF22228501231B06CD
:2032A000009606E0608D20850096208D0123C2B25B062046049901F0A9FD3A4620460E999D
:2032C00001F001FE002803D0606C04284BD01AE0606A411C6162216800788862608D401ED6
:2032E0006085208D401E0004000C208524D1608D002821D000970022802120460E9B01F0D4
:2033000097FD002802D0032007B0F0BD608DFF2807D9FF22228501231B06009608E024E015
:2033200021E0608D20850096208D0123C2B25B062046049901F06AFD608D0028BDD13A4640
:2033400020460E9901F098FD0028BDD120682021C16120684268064B1A4042606970AE70C3
:203360002E700020D0E70120CEE70220CCE7000000E800FE7047000010B5164C86B0E16AE8
:2033800002200143E162E16A039001400591032109020020009102901221042001910490E0
:2033A00069460D48FFF75AFDA16B012040050143A163A16A0143A162A16A8143A1620022BC
:2033C0001146172000F050F8172000F041F806B010BD0000001002400004005002480168EB
:2033E000491C0160704700008804002010B506480168022211430160032000F007F800F04D
:2034000019F8002010BD00000020024010B5044607487D21C9000068FCF76AFE00F064FD73
:2034200000222146501E00F01FF8002010BD00007C00002070470000002805DBC106C90EA8
:2034400001208840014908607047000080E100E0002805DBC106C90E012088400149086098
:203460007047000000E100E010B505F0FBFF10BDF8B5044653480E460068C007C00FB0427D
:203480000AD25048016849084900314301600068C007C00FB0426FD120784B4F800705D51D
:2034A000F868F0218843A1680843F8602078C00752D06068022817D0032818D039680128ED
:2034C00018D08905002957DAF968890889000143F960FFF77DFD05466068022812D003284A
:2034E0001CD0012826D033E039688903EAE739688901E7E74907E5E7FFF76AFD411B334867
:20350000814223D8F8680007800F0228F4D123E0FFF75EFD411B2D48814217D8F8680007CA
:20352000800F0328F4D117E0FFF752FD411B274881420BD8F8680007800F0128F4D10BE090
:20354000FFF746FD411B2148814201D90320F8BDF8680007800FF3D11A480168C907C90FCB
:20356000B1420BD9016849084900314301600068C007C00FB04201D00120F8BD2078400726
:2035800006D5F868072109028843E1680843F8602078000707D5F8680721C90288432169E3
:2035A000C9000843F86000F017F8F968084A0906090F515CC840074908600320FFF726FF1B
:2035C0000020F8BD00200240001002408813000030B000087C00002010B5194AD1680C23B3
:2035E0000846184004280BD0082810D00C2810D050680004410F0120C003491C884010BD10
:203600001068C00601D50F4810BD0F4810BD0F4810BD88020E4B000F185C0902D368890FE6
:20362000491CDB0301D5094A05E01268D20601D5044A00E0044A5043FCF75AFD10BD0000EB
:203640000010024000093D000024F40000127A0040B00008F8B504460078FD4EC00749D09C
:20366000F0680007800F022807D0F0680007800F032809D1F068C00306D53068800339D549
:203680006068002872D035E0012160680904884202D13068084310E0052301221B0492047C
:2036A0009842306802D110433060F2E7884330603068084000903068904330606068002853
:2036C0000CD0FFF785FC054604E0FFF781FC401B64287DD830688003F7D50BE0FFF778FC7D
:2036E000054604E0FFF774FC401B6428F1D830688003F7D42078800741D5F0681F270007C5
:20370000800F3F02012807D0F0680007800F032809D1F068C00306D43068400717D5E068DE
:20372000012823D113E0E068002817D031680922914301433160FFF74BFC054604E0FFF753
:2037400047FC401B0228C4D830684007F7D570682169B84309020843706010E03068400807
:2037600040003060FFF734FC054605E095E0FFF72FFC401B0228ACD830684007F7D4207842
:20378000C00672D5F068B34F0007800F0AD0E06900283068B0495AD008433060FFF718FC41
:2037A000054644E03068800502D5E069002874D0606A71683940884212D905F07FFE002886
:2037C000AFD17068616AB84308437060706800E0DEE00002218C000A0906084370600FE068
:2037E0007168B943014371607068218C0002000A090608437060606A05F060FE002890D17E
:20380000606A410B0120C003491C8840F168934A0906090F515CC840914908600320FFF714
:20382000F5FD22E0FFF7D4FB401B02288BD830688005F7D57068616AB8430843706070686D
:20384000218C0002000A0906084370600DE088433060FFF7BDFB054604E0FFF7B9FB401B5B
:20386000022888D830688005F7D420787D4D000723D560690028286910D00121084328611D
:20388000FFF7A6FB074604E0FFF7A2FBC01B02287ED828698007F7D50FE000E14008400036
:2038A0002861FFF795FB074604E0FFF791FBC01B02286DD828698007F7D42078400760D505
:2038C00000200090B06BC00006D4B06B012109070843B0630120009063480168C90510D461
:2038E0000168821511430160FFF772FB074604E0FFF76EFBC01B64284AD85B480068C005C7
:20390000F6D55548A168814203D129690143296111E001229202002907D005231B02994277
:2039200003D1296911432961EFE7296981432961286990432861A06800280DD0FFF748FB5A
:20394000074605E0FFF744FBC11B484881421FD828698005F6D50CE0FFF73AFB074605E0B0
:20396000FFF736FBC11B4148814211D828698005F6D40098002804D0B06B01210907884383
:20398000B063207880062FD53948A269411400E07EE0002AB26815D001231A43B260726B3A
:2039A0001A437263026A0A430262FFF711FB054604E0FFF70DFB401B022869D8B068800724
:2039C000F7D511E052085200B260026A8A430262FFF7FEFA054604E0FFF7FAFA401B022843
:2039E00056D8B0688007F7D4A06A002855D0F1680907890F032952D001273F06022830685A
:203A000005D0B8433060FFF7E3FA044642E0B8433060FFF7DDFA054604E0FFF7D9FA401B5C
:203A2000022835D830688001F7D4216BE06AF2680843616BFD231B049A4311430843F06019
:203A4000306838433060FFF7C3FA044617E000000010024000E000000001000030B00008B4
:203A60007C00002040100240007000408813000000000140FFF7ACFA001B022808D8306833
:203A80008001F7D509E0FFF7A3FA001B022801D90320F8BD30688001F5D40020F8BD01208E
:203AA000F8BD70B5040006D025464035687C0026002802D005E0012070BD2E74204600F043
:203AC00033F80220687420680168402291430160A168606822690843E168114308436169DC
:203AE00001220843A169520211400843E1690843216A0843A16A084321680860A06904217E
:203B0000000C0840616A0843216848602168E06A08612068C16992009143C16166650120A8
:203B20006874002070BD0000F0B5414887B0C16A01242143C162C16A21400591C16A0226AB
:203B40003143C162C16A31400591C16A2143C162C16A21400591C16A2143C162C16A21408A
:203B60000591C16A2143C162C16A21400591C16A2143C162C16A21400591416B8214114371
:203B800041638715002505200194039569460007009704950294FFF761F9052000223946DC
:203BA0000007FFF70AFA082003270090019669460397029604951F48FFF750F9402000907B
:203BC0000520029569460397019604950007FFF745F98020009005200295694603970196A9
:203BE00004950007FFF73AF905200194694600070397009604950294FFF730F905200122C6
:203C000002210007FFF7D9F90B4801A90094A1C10520694600070495FFF720F900220321F6
:203C20000520FFF721FC0520FFF712FC07B0F0BD001002400004005000001110F8B5044601
:203C400000206D462880254640356E7C012E02D06E7C222E7ED100290CD0002A0AD0002B61
:203C600008D02E7C012E75D001262E746E7C012E02D003E00120F8BD32266E7400206065C2
:203C8000A263A387E3872163A386E386A064E0640126A06A7603B04207D120680168B143D4
:203CA0000160206801683143016020680168490603D401684022114301600122D202FF212F
:203CC000E068053157009042606862D1002804D088420CD1E08E012809D1206B2168008892
:203CE000C860206B801C2063E08E401EE086E08E00283FD1A06AB04242D12068016839439E
:203D000001603DE02068C068A16B0880A06B801CA063A9E0002202212046069B05F02AFD46
:203D200000287DD1206B21680088C860206B801C2063E08E401EE086E08E002806D1A06AF6
:203D4000B04203D1206801683943016000220121204600E0C6E0069B05F00CFD00287BD18C
:203D60002068C068A16B0880A06B801CA063E08F401EE087E08E0028CCD16068002876D1B7
:203D8000002201212046069B05F0F4FC002863D1B8E7002804D088420BD1E08E012808D1E6
:203DA000206B411C216321680078C860E08E401EE086E08E002841D1A06AB04203D120683C
:203DC000016839430160002201212046069B05F0D1FC002840D12068C068A16B087043E000
:203DE000002202212046069B05F0C4FC002833D1206B411C216321680078C860E08E401E35
:203E0000E086E08E002806D1A06AB04203D12068016839430160002201212046069B00E006
:203E20001AE005F0A7FC002816D12068C168A06B421CA2630170E08F401EE087E08E002887
:203E4000CED16068002812D1002201212046069B05F090FC002801D00320F8BD2068C168A2
:203E6000A06B421CA2630170E08F401EE087A06A0227B0420FD1002201212046069B05F0EA
:203E800079FC002802D0606D38430FE02068C068694608800888012280212046069B05F045
:203EA00069FC002804D0606D202108436065D3E701206874A06AB04211D120688168C94371
:203EC000C9060CD4616D394361650168B1430160206801683143016000202874CAE6002013
:203EE0002874F8BD0220F8BD094910B5401E884201D9012010BD074C60610321081F05F03F
:203F0000B1FA0020A06107202061002010BD0000FFFFFF0000E000E00168CA68520852003C
:203F2000CA600068016A044A114203D101684908490001600020704711110000704770B5D6
:203F40000446006801690025C9438907002915DBC168C943890711D4E91E016101202075A2
:203F6000206880698007204602D0FFF7E7FF04E000F0A0F8204600F039F9257520680169B5
:203F8000C943490717D4C168C943490713D40421C943016102202075206880698005800F9F
:203FA000204602D0FFF7CAFF04E000F083F8204600F01CF9257520680169C943090716D4BE
:203FC000C168C943090712D40821C9430161042020752068C0698007204602D0FFF7AEFF53
:203FE00004E000F067F8204600F000F9257520680169C943C90617D4C168C943C90613D402
:020000040800F2
:204000001021C9430161082020752068C0698005800F204602D0FFF791FF04E000F04AF8AB
:20402000204600F0E3F8257520680169C943C90708D1C168C943C90704D1891E01612046C5
:2040400000F0D5F820680169C943490609D4C168C943490605D44021C9430161204600F0F7
:20406000EAF870BD70B504462034237D012B0CD00125257502236375002A08D0042A0AD0FF
:20408000082A0CD00C2A11D10DE0022070BD006805F097FE0AE0006805F0ABFE06E000688E
:2040A00005F0C0FE02E0006805F0D7FE65750020207570BDF8B50446007D01260C4D0D4F2D
:2040C000012808D10021204600F092F8E9684018396848632E62207D082808D10C2120461F
:2040E00000F086F829694018396808646E62F8BD08000020A405002070B5040005D025467C
:204100002035687D002802D006E0012070BD00202875204600F00AF802206875211D20685D
:2041200005F01CFE01206875002070BD10B50748816B012211438163002208210F20FFF75A
:2041400093F90F20FFF784F910BD00000010024010B502680446002906D0042907D0082965
:2041600014D00C2907D114E0D068022301E0D06804231843D0600122206805F017FE2068F5
:204180000168012211430160002010BDD0680823EFE7D0681023ECE710B5026804460029D8
:2041A00006D0042907D0082918D00C2907D118E0D068022301E0D06804239843D06000223D
:2041C000206805F0F3FD2068016A074A114203D10168490849000160002010BDD068082353
:2041E000EBE7D0681023E8E71111000070477047024610B5134620331C7D0020012C0AD0AA
:2042000001241C75002908D0042909D008290AD00C290DD10AE0022010BD1068406B07E0E0
:204220001068806B04E01068C06B01E01068006C0021197510BD704710B5411C00780428D6
:2042400016D10878052814D03E2815D0FF280FD1C8788A78000210431D4A891C801825D064
:20426000132805D1487909790002084305F05EF910BDFEF7D9FC10BD8878891C0128FAD154
:20428000C87889780002084312490122CA62888011480024046011488069002801D0FEF7CD
:2042A000D1FA0F4804600F48046010BD0B488A792030407A0B790128487905D000021843F0
:2042C000C91DFCF719FE10BD000218430931F8E7FFF3FFFF480000200C0000203C060020C5
:2042E000440000201000002070B50A4806F0E6FC0848083006F0E2FC074D00248C206043B8
:204300004119044806F0E9FC641CE4B2052CF5D370BD000090040020E407002008B5002044
:20432000009024E0154806F0E4FC002802D0FDF78FFF08BD6946114806F0E7FC009880215B
:204340000830FDF7DDFE0106090E06D000988822115400F041F8002804D00848009906F0B7
:20436000B0FC04E005480099083006F0B6FCFDF76FFFFDF7A5FE0028D4D108BD90040020A8
:2043800008B500200090FEF715FB10E069460D4806F0BBFCFEF7D0FB00980830FFF74CFF39
:2043A000FEF708FB07480099083806F096FC054806F09FFC0028E9D0FFF7B0FFFEF7BCFB45
:2043C00008BD00009804002010B5024806F091FC10BD0000980400200146027A0831042A17
:2043E00001D0012070478030007A8978C01E814201D0022070470020704738B504466B46DF
:204400000122202100F027FA00280DD16946087880210843694608706B4601222021204664
:2044200000F098FB002800D0012038BD38B50446002069460870204600F048F9012805D0D8
:20444000694620780978884201D0012038BD002038BD38B504466B460122202100F0FBF99E
:2044600000280CD1694608786B464006400E087001222021204600F06DFB002800D0012010
:2044800038BD38B515460C466B460122272100F0E2F9002801D0012038BD684600788007EA
:2044A000C00F207068460078C007C00F2870002038BD10B50B4601220F2100F0CCF90028EE
:2044C00000D0012010BD0000F3B583B06B4602223021039800F0BFF9002823D16846007898
:2044E0006B46450868464078022246083621039800F0B1F9002815D1684600886B4604B2AF
:2045000002223A21039800F0A6F900280AD1684600886B4607B202222821039800F09BF9C3
:20452000002802D0012005B0F0BD6846008800B202902846FBF77BFF0190381BFBF777FF5E
:204540000746701BFBF773FF05460298001BFBF76EFF2946FBF7F0FE3946FBF72AFF01993D
:20456000FBF791FE0A49FBF7E7FE0A49884202DD7D20C00008E0FF21C905C84201D3002063
:2045800002E0FBF77FFF80B2049908800020CAE70000204100007A4438B50C46694600F0A4
:2045A0001FF801280CD06846007800280BD0012807D002280AD003280AD0064820600120BE
:2045C00038BD7F20C0052060002038BD0248FAE70248F8E7000080BF0000E04000004841B1
:2045E00038B50C466B460122202100F034F9002801D0012038BD694608788007800F08707E
:204600002070002038BD0000F3B585B06B4602223221059800F01FF900282BD101AB012258
:204620003521059800F017F9002823D16A46107912788107890D11430C2210406A4652783E
:2046400080011043CD10C6106B4604223C21059800F001F900280DD1684600886B4604B275
:2046600068464088022207B22A21059800F0F3F8002802D0012007B0F0BD6846008800B2BD
:2046800003902846FBF7D3FE0290381BFBF7CFFE0746701BFBF7CBFE05460398001BFBF72C
:2046A000C6FE2946FBF748FE3946FBF782FE0299FBF7E9FD0449FBF73FFEFBF7CAFE069956
:2046C00008800020D7E700000000204110B5FFF7F0FE012800D0002010BD10B5FFF7A6FE25
:2046E00010BD10B504468068006800684078002804D1204600F056F8012805D0A1680020A6
:20470000096809680870607110BD1CB50C4601AA6946FFF7B6FE012806D06846007800282D
:2047200003D0012801D001201CBD207000201CBD38B50C46002569460D80FFF7C5FE0128A7
:2047400008D068460088FBF77DFE0349FBF731FE2060284638BD00000000204110B5FFF772
:204760001BFF10BD10B5FFF7B1FF10BD10B504468068006800684078002804D1204600F048
:2047800051F8012806D0A16801200968096808706071002010BD10B500F067F8012800D082
:2047A000002010BD10B504468079002810D0A06800680068C078002804D1204600F05EF843
:2047C000012805D0A1680020096809688870A07110BD10B504468079012806D0A068006883
:2047E0000068C078002802D006E0002010BD204600F04BF80128F9D0A168012009680968B5
:204800008870A071F1E710B500F08CF810BD10B500F09CF810BD10B500F0A6F9012800D04E
:20482000002010BD10B50446FFF700FE012811D02046FFF70EFE01280CD00121204600F099
:204840002BF8012806D00021204600F06BF8012800D0002010BD10B51C461346224605F099
:2048600050F9002800D0012010BD10B513460122FFF7F1FF012800D0002010BD10B5FFF741
:20488000E8FD012800D0002010BD10B5FFF7B5FD012800D0002010BD38B50C460546012946
:2048A00005D0002C03D00E490EA000F067F96B4601222021FFF7CFFF00280FD169460978BE
:2048C000FB200140A0000843694608706B4601222021284600F03EF9002800D0012038BDB2
:2048E0005F0200002E2E5C2E2E5C2E2E5C2E2E5C2E2E5C2E2E5C447269766572735C425337
:20490000505C436F6D706F6E656E74735C6874733232315C4854533232315F44726976654C
:20492000722E630010B50B0005F04EFB0504060606060D00012100E0032100F01DF80128E4
:2049400000D0002010BD012010BD00007F2210B5D205914201DC012105E0064A914201DCB8
:20496000022100E0032100F007F8012800D0002010BD00000000E04038B50C00054609D0FE
:20498000012C07D0022C05D0032C03D00D490EA000F0F4F86B4601222021FFF75CFF0028A0
:2049A0000DD1694608786B46800880002043087001222021284600F0CDF8002800D00120B6
:2049C00038BD0000B60200002E2E5C2E2E5C2E2E5C2E2E5C2E2E5C2E2E5C4472697665726E
:2049E000735C4253505C436F6D706F6E656E74735C6874733232315C4854533232315F44BE
:204A000072697665722E630010B5FFF70FFD10BD10B504468068006800680078002804D10D
:204A2000204600F057F8012805D0A1680020096809684870607110BD1CB50C466A4601A9F5
:204A4000FFF71FFD012806D068460078002803D0012801D001201CBD207000201CBD10B5E2
:204A6000FFF79AFD10BD000038B50C46002569460D80FFF7C9FD012808D06946485FFBF737
:204A8000D6FC0349FBF795FC2060284638BD00000000204110B5FFF719FE10BD10B5044683
:204AA0008068006800680078002804D12046FFF7B9FE012806D0A1680120096809684870F3
:204AC0006071002010BD10B5FFF7CFFE012800D0002010BD10B504468079002810D0A06892
:204AE000006800688078002804D12046FFF7C6FE012805D0A168002009680968C870A0717F
:204B000010BD10B504468079012806D0A068006800688078002802D006E0002010BD2046BE
:204B2000FFF7B3FE0128F9D0A168012009680968C870A071F1E710B5FFF7F4FE10BD10B570
:204B4000FFF704FF10BD10B500F00EF8012800D0002010BD10B51C461346224605F002F817
:204B6000002800D0012010BD07B502AB0122FFF7F1FF012800D000200EBD00000A46014662
:204B800001A005F0FDF9FEE757726F6E6720706172616D65746572732076616C75653A20AC
:204BA00066696C65202573206F6E206C696E652025640D0A00000000FEB50E4607461C4662
:204BC00015466421684605F0D3F9E3B2EAB231463846FDF7E1FA002804D0684605F0BAF93F
:204BE0000028F2D0FEBDFEE73EB50C46084909680291019300920146012322460548FEF756
:204C000063FA002802D000F031F801203EBD000024040020400700203EB50C460849096852
:204C20000291019300920146012322460548FEF7F7FA002802D000F019F801203EBD00009E
:204C4000240400204007002001688A69D243920701D400228A6200688169C943C90703D0B7
:204C600081690122114381617047000010B50448FEF7B4F90120FEF7C3F800F003F810BDFE
:204C80004007002010B500240B48FEF7BFF9002810D109480949016009494160332181608F
:204CA0000121C160002101614161C1610162FEF7B1F90446204610BD4007002000540040F0
:204CC000563EA110F8B504460068174680690E46C043C0062CD42546403520688069C04379
:204CE00080060FD5701CF8D0002E04D0FEF770F9C01BB042F1D9202068700020A870287017
:204D00000320F8BD21681020C86120682026C6612046FFF799FF20684168064A114041607D
:204D2000042060646E700020A87028700120F8BD0020F8BD00E800FEF8B5044601201646D8
:204D400040031D46DAB20090079F0023204600F05DF83A462046069900F0B5F8002803D000
:204D6000606C04281BD018E02846F5B2012809D02168300A88623A462046069900F0A3F884
:204D80000028EDD1206885620097002240212046069B00F04DF8002800D00320F8BD012077
:204DA000F8BDF8B504460120164640031D46DAB2C3020090079F204600F028F83A46204641
:204DC000069900F080F8002803D0606C04281BD018E02846F5B2012809D02168300A886232
:204DE0003A462046069900F06EF80028EDD1206885620097002280212046069B00F018F822
:204E0000002800D00320F8BD0120F8BD70B50068049D44688905890D1204044E11431943D6
:204E2000344029432143416070BD0000009800FCF8B51C4617460E46054611E0601C0FD075
:204E4000002C05D0FEF7C4F80699401AA04207D92020403568700020A87028700320F8BDB0
:204E6000286881693046884304D00020B842E5D00020F8BD0120F9E770B516460D460446E0
:204E80001AE0324629462046FFF71CFF002801D0012070BD002D04D0FEF79AF8801BA84266
:204EA0000AD9616C202001436164403460700020A0702070032070BD20688069C0438006AB
:204EC000DFD4002070BD70B516460C4605461CE0324621462846FFF7F5FE002801D0012068
:204EE00070BD601C11D0002C04D0FEF771F8801BA0420AD9696C20200143696440356870F7
:204F00000020A8702870032070BD28688069C0438007DDD4002070BD10B503480349C069EB
:204F2000FCF75BFC10BD00003C0600200400002010B510490870FFF7A5FE002801D0FDF7B8
:204F400071FE04F0F3FB002801D0FDF76BFE01210020FCF7E3FF0020FCF7FAFD44210548D7
:204F6000FBF76EF900F0C0F8024800212030417210BD00003C0600201FB519481749006896
:204F8000FBF7B6F80122174992070A60164A401ECA6048600020086188600846FFF7ACF802
:204FA000002800D0FEE730200090022002900F480190002269460B48FFF754F8002800D03A
:204FC000FEE7FF20F53001900C2269460548FFF749F8002800D0FEE71FBD000010270000C6
:204FE0007C000020A4050020FFFF00008813000070B537A003C88CB008910790FFF774F91D
:20500000FDF768F80AA904A805F0ADFC6846007C01250026304C302801D9657200E066728C
:20502000FDF758F82D4A2E495069000E087010694870128B000C120A8A70C8706846007CAD
:20504000302801D9832000E01F200871C020487105F008FC002838D1607A012818D009AB81
:2050600005AA06A9012005F00AFA00282DD11C4805F0DDFC002828D107A800906846818A47
:2050800007230022008B05F009FC00280BD0FEE709A905A80191009006AB072200210120BA
:2050A00005F02BFAE1E70F4810210022009102900723019603951146012005F05EFA0028FB
:2050C00003D10421012005F023FC0CB070BD00004D453156333130005C0600204000F81F33
:2050E0003C00002040E2010070B50025ED4330492846FCF7E2FB2E490122091D002800D147
:205100008A722B4C28461C3CA261FCF763FC002800D0FEE7264928460831FCF7E7FE00280E
:2051200000D0FEE7224928460839FCF7EFFC60688000011928460831FCF792FF0028606845
:2051400001D1401C60608000011901200831FCF787FF002802D16068401C6060144928464A
:205160000C39FCF74BFFE069002801D0FCF7DCFB206A002801D0FCF737FC606A002801D035
:20518000FCF7BEFE6069002801D0FCF7D3FCA068002801D0FCF786FFE068002801D0FCF72F
:2051A00081FF2069002801D0FCF73CFF70BD0000580600201CB50446FDF70AFFC008694685
:2051C0000871FDF705FFC00A694648718C7101A800900C480323C1890022C08805F05EFB7A
:2051E00000280ED008480088800509D507A10E4804F0D6FE0D490860C1B20B4804F018FD1B
:2052000047201CBD480000200C0000204572726F72205570646174696E67204C45442043FC
:205220006861720D0A000000A40400203800002038B50446002069460870204600F014FA1A
:20524000012805D0694620780978884201D0012038BD002038BD70B51446054600F080F98F
:20526000012806D02146284600F0D2F9012800D0002070BD1CB50C46694600F0F9F801287D
:2052800003D068464078207000201CBD1CB50C46694600F0EDF8012803D0684600792070F2
:2052A00000201CBD1CB50C46694600F0E1F8012803D068468078207000201CBD38B50C46F0
:2052C000694600F0C2F8012803D0684600782070002038BD1CB50C46694600F0C9F8012802
:2052E00003D068460078207000201CBD1CB50C46694600F0BDF8012803D06846C078207043
:2053000000201CBD10B500F0D6F8012800D0002010BD10B5002905D0012907D0022909D063
:20532000012010BD002100F0E5FA06E0002100F0FCFA02E0002100F013FB0128F1D0002097
:2053400010BD10B5002905D0012907D0022909D0012010BD012100F0CDFA06E0012100F0F9
:20536000E4FA02E0012100F0FBFA0128F1D0002010BD10B560290DD006DC00290AD0202936
:2053800008D0402904D105E0802903D0E02901D0012010BD00F0FFFA0128FAD0002010BD05
:2053A00010B500F02DFB012800D0002010BD10B5002903D0012901D0012010BD00F03AFB5B
:2053C0000128FAD0002010BD10B5002903D0012901D0012010BD00F0F8FA0128FAD000204E
:2053E00010BD10B5002903D0012901D0012010BD00F020FB0128FAD0002010BD38B50C460C
:205400006B460122272100F004FA002801D0012038BD68460078C107C90F61700221084071
:205420002070684600788106C90FC006A170C00FE070002038BD10B50B4601220F2100F0F3
:20544000E8F9002800D0012010BD38B50C466B460122142100F0DDF9002801D0012038BD68
:20546000694608784009400108702070002038BD38B50C466B460122262100F0CAF9002821
:2054800001D0012038BD684600780022C10921714106C90FE1708006800E01212070002823
:2054A00003D06270202804D000E06170A270002038BDA170FBE710B50C460B4601221421A0
:2054C00000F0A7F9002801D0012010BD2078C006C00E2070002010BD38B50C46694600F0CE
:2054E0002DF8012812D068460078302816D006DC00280ED010280AD0202804D10CE04028AD
:205500000ED050280ED008482060012038BD7F20C0052060002038BD0448FAE70448F8E720
:205520000448F6E70448F4E7000080BF000020410000C841000048420000964238B50C46D1
:205540006B460122102100F064F9002801D0012038BD68460078702108402070002038BD46
:2055600038B50C4600210091694600F00DF8012807D00098FAF75BFF0249FAF71AFF2060DE
:20558000002038BD0000C84238B50C46694600F00EF8002801D0012038BD00986421484351
:2055A000C117090D081800132060002038BD38B50D4600246B460322282100F02AF9002877
:2055C00001D0012038BD002069460A5CC3009A40401C1443C0B20328F7D3200202D5FF20E0
:2055E0000006044300202C6038BD38B50C466B4602222B2100F00DF9002801D0012038BD58
:20560000694648780978000240182080002038BD38B50C4600216A461180694600F010F843
:20562000012809D069460020085EFAF700FF0349FAF7BFFE2060002038BD00000000204153
:2056400038B50C466946FFF7D0FF002801D0012038BD69460020085E0A2148436421FAF727
:205660005DFD2080002038BD10B5FFF7E4FE012800D0002010BD000070B50C460546FFF7E0
:20568000D7FD01282AD0164860600121284600F0C5FA012822D00021284600F0A4FA012855
:2056A0001CD00021284600F0E0F9012816D00021284600F0F5F9012810D00221284600F0A0
:2056C000FCF801280AD06978002901D0012904D1284600F0D7F8012800D0002070BD000086
:2056E0000000C84110B5FFF7A3FD10BD70B505468068006804686078002804D1284600F01A
:2057000038F8012802D000202070687170BD38B50C466946FFF772FE012803D068464078F2
:205720002070002038BD10B5FFF7D6FE10BD10B5FFF716FF10BD10B5FFF796FF10BD70B589
:2057400005468068006804686078002805D121462846FFF791FF012803D00120207068718B
:20576000002070BD10B500F05EF8012800D0002010BD70B50446806800680568A07900287E
:205780000BD0E878002805D10021204600F02BFA012802D00020A870A07170BD70B5054653
:2057A000806800680468A879012809D022462846616800F0ABF9012803D00120A070A87191
:2057C000002070BD10B5826883791268012B126805D000F0C7F9012800D0002010BD00F056
:2057E000E1F9F8E710B5826883791268012B126805D000F071F9012800D0002010BD00F020
:2058000085F9F8E710B500F0C4FA012800D0002010BD10B51C461346224604F072F9002863
:2058200000D0012010BD10B513460122FFF7F1FF012800D0002010BD00B50F4887B0C26A2E
:2058400002210A43C262C06A039108400590480200900A4801900020029069460848FDF7B7
:20586000FDFA002211460720FDF7FEFD0720FDF7EFFD002007B000BD001002400000111094
:205880000004005038B50D4604466B4601221121FFF7BFFF00280ED169460A78EF200240E7
:2058A0002801104308706B4601221121204600F066FA002800D0012038BD38B50C460546A0
:2058C0006B4601221021FFF7A4FF002801D0012038BD68460278FD2002402243684602700F
:2058E0006B4601221021284600F049FA0028EFD0002038BD38B50D4604466B460122122175
:20590000FFF787FF00280ED169460A78EF2002402801104308706B4601221221204600F031
:205920002EFA002800D0012038BD38B50D4604466B4601221221FFF76CFF00280ED1694689
:205940000A78DF2002406801104308706B4601221221204600F013FA002800D0012038BDD8
:2059600038B50D4604466B4601221221FFF751FF00280ED169460A78F7200240E800104384
:2059800008706B4601221221204600F0F8F9002800D0012038BD38B50C4605466B460122D5
:2059A0001421FFF736FF00280DD1694608786B46C006C00E2043087001221421284600F07C
:2059C000DEF9002800D0012038BD38B50D4604466B4601221121FFF71CFF00280ED169468B
:2059E0000A78BF200240A801104308706B4601221121204600F0C3F9002800D0012038BD6A
:205A000038B50C4605466B4601221421FFF701FF00280DD1694608786B464009400120432A
:205A2000087001221421284600F0A9F9002800D0012038BD38B50D4604466B4601221121F8
:205A4000FFF7E7FE00280ED169460A78DF2002406801104308706B4601221121204600F062
:205A60008EF9002800D0012038BD38B50D4604466B4601221021FFF7CCFE00280ED169468C
:205A80000A78F7200240E800104308706B4601221021204600F073F9002800D0012038BDA3
:205AA00038B50C4605466B4601221021FFF7B1FE00280ED168460278FB2002402243684613
:205AC00002706B4601221021284600F058F9002800D0012038BD00007F20C005814209DD85
:205AE0000648814206DD0648814203DD0548814200DD05485060002070470000000020419F
:205B00000000C841000048420000964270B505467F20C0051446814201DC10210FE00E48D6
:205B2000814201DC20210AE00C48814201DC302105E00B48814201DC402100E0502128465D
:205B400000F051F8012806D0211D2846FFF7C4FC012800D0002070BD000020410000C841FB
:205B60000000484200B50B0004F02EFA0504070B0D0F11007F20C00500E006485060002015
:205B800000BD0548FAE70548F8E70548F6E7012000BD0000000020410000C84100004842F2
:205BA0000000964270B5144605460B0004F00CFA050406080A0C1900102106E0202104E0BC
:205BC000302102E0402100E0502100F00CF8012806D0211D2846FFF77FFC012800D00020B7
:205BE00070BD012070BD38B50C4605466B4601221021FFF70EFE00280ED1684602788F20BB
:205C000002402243684602706B4601221021284600F0B5F8002800D0012038BD38B50C4660
:205C200005466B4601221A21FFF7F3FD00280DD1694608786B4640084000204308700122B8
:205C40001A21284600F09BF8002800D0012038BD10B5FFF7EDFA10BD70B5054680680068DB
:205C600004682078002804D1284600F038F8012802D000206070687170BD38B50C466946B6
:205C8000FFF7BCFB012803D0684600782070002038BD10B5FFF720FC10BD10B5FFF7B8FC7D
:205CA00010BD10B5FFF7E0FC10BD70B505468068006804682078002805D121462846FFF726
:205CC000DBFC012803D0012060706871002070BD10B5FFF7A8FD012800D0002010BD70B56F
:205CE0000446806800680568A07900280BD0A878002805D100212046FFF775FF012802D077
:205D00000020E870A07170BD70B50546806800680468A879012809D0224628466168FFF7E9
:205D2000F5FE012803D00120E070A871002070BD10B5826883791268012B126805D0FFF707
:205D400011FF012800D0002010BDFFF72BFFF8E710B5826883791268012B126805D0FFF7B8
:205D6000BBFE012800D0002010BDFFF7CFFEF8E710B500F00EF8012800D0002010BD10B57C
:205D80001C461346224603F0EDFE002800D0012010BD07B502AB0122FFF7F1FF012800D0B1
:205DA00000200EBDF3B585B00D4600273E4602A9059800F092F803A9059800F09DF86846DF
:205DC000007B082803D16946097A002907D06946097A02460A4305D0002806D007E0022768
:205DE000082408E00127062405E0082902D0002007B0F0BD042404A9059800F05FF868466A
:205E0000007C00280BD0102804D0202804D0302805D103E0012602E0022600E003266946E1
:205E2000059800F041F81F4879010F18F600B9196B4600229A5E03C92241D317FAF7A8F956
:205E4000FF23F5330022C01851415A000023FAF779F92860B9196B4602229A5E03C9224136
:205E6000D317FAF795F9FF23F5330022C01851415A000023FAF766F96860B9196B460422A5
:205E80009A5E03C92241D317FAF782F9FF23F5330022C01851415A000023FAF753F9A860ED
:205EA0000120A5E750B0000810B50A460623282100F086F8002800D0012010BD10B50C463B
:205EC0000A460123232100F07BF8002804D02078302108402070012010BD10B50C460A4695
:205EE0000123232100F06CF8002804D02078082108402070012010BD10B50C460A460123D8
:205F0000202100F05DF8002804D02078082108402070012010BD10B50C460A4601232021AC
:205F200000F04EF8002804D02078000900012070012010BD10B50A4601230F2100F040F87E
:205F4000002800D0012010BD10B50C460A460123272100F035F8002804D02078C007C00F41
:205F60002070012010BD10B50C460A460123202100F026F8002804D02078C007C00F20700F
:205F8000012010BD10B50C460A460123202100F017F8002804D02078022108402070012098
:205FA00010BD10B50C460A460123202100F008F8002804D02078042108402070012010BDD9
:205FC00010B503F09EFD002801D0002010BD012010BD38B50C46054601236A462321FFF702
:205FE000EFFF00280ED06946087801234006400E204308706A462321284600F0A3F80028D6
:020000040800F2
:2060000000D0012038BD38B50C46054601236A462E21FFF7D5FF00280ED0694608780123CA
:206020008006800E204308706A462E21284600F089F8002800D0012038BD38B50C460546FB
:2060400001236A462321FFF7BBFF00280FD068460278CF20024022436846027001236A46BF
:206060002321284600F06EF8002800D0012038BD38B50C46054601236A462021FFF7A0FFD6
:2060800000280ED06946087801230007000F204308706A462021284600F054F8002800D023
:2060A000012038BD38B50C46054601236A462021FFF786FF00280ED069460878012340080F
:2060C0004000204308706A462021284600F03AF8002800D0012038BD38B50C460546012368
:2060E0006A462021FFF76CFF00280FD068460278FD20024022436846027001236A46202126
:20610000284600F01FF8002800D0012038BD38B50C46054601236A462021FFF751FF0028EF
:206120000FD068460278FB20024022436846027001236A462021284600F004F8002800D00F
:20614000012038BD10B503F00DFD002801D0002010BD012010BD10B50A460623682100F0DC
:206160002CF8002800D0012010BD10B50C460A460123602100F021F8002804D020780C213F
:2061800008402070012010BD10B50A4601234F2100F013F8002800D0012010BD10B50C4698
:2061A0000A460123672100F008F8002804D02078082108402070012010BD10B503F0A1FC1B
:2061C000002801D0002010BD012010BD38B50C46054601236A466221FFF7EFFF00280FD01F
:2061E00068460278EF20024022436846027001236A466221284600F054F8002800D0012087
:2062000038BD38B50C46054601236A466021FFF7D4FF00280ED06946087801238008800080
:20622000204308706A466021284600F03AF8002800D0012038BD38B50C46054601236A4656
:206240006021FFF7BAFF00280FD068460278F320024022436846027001236A466021284642
:2062600000F01FF8002800D0012038BD38B50C46054601236A466221FFF79FFF00280FD08D
:2062800068460278FD20024022436846027001236A466221284600F004F8002800D0012028
:2062A00038BD10B503F05EFC002801D0002010BD012010BD38B5044600206946087020461F
:2062C00000F0BBF8012805D0694620780978884201D0012038BD002038BD70B50446806838
:2062E000006805682046FFF7E5FF012807D0204600F0DFF8012802D000206870607170BD6B
:206300007CB50C46694600F039F8012823D0FF2569460020AD05085EFAF789F82946FAF731
:206320000BF8FAF796F8206069460220085EFAF77EF82946FAF700F8FAF78BF86060694682
:206340000420085EFAF773F82946F9F7F5FFFAF780F8A06000207CBD1CB50C46694600F080
:206360000DF8012809D068460088208068464088608068468088A08000201CBD1CB50C46F8
:206380000021009101916946FFF7E5FE00280AD0684600882080684640886080684680884D
:2063A000A08000201CBD01201CBD38B50C466946FFF7F4FE002805D068460078002804D0D5
:2063C000082801D0012038BD01202070002038BD01480860002070470000484238B50C468F
:2063E0006946FFF7C2FE00280BD068460078002809D0042809D008280BD00C280BD00748A0
:206400002060012038BD064800E006482060002038BD0548FAE70548F8E70000000080BF3C
:20642000000020410000A041000048420000C842FF20800508600020704710B5FFF7A4FE46
:20644000002801D0002010BD012010BD70B504468068006805682046FFF72CFF01281BD0A1
:2064600002212046FFF7CDFE002816D010212046FFF7ACFE002810D00421204600F03EF8D4
:20648000012809D000212046FFF7F0FE002804D0012068706071002070BD012070BD10B569
:2064A0000123FFF78AFE002801D0002010BD012010BD10B504468079002807D002212046D6
:2064C000FFF79FFE002802D00020A07110BD012010BD10B504468079012807D000212046B4
:2064E000FFF78FFE002803D00120A071002010BD012010BD002070470020704710B50B0093
:2065000003F062FD050406080A0A1100002104E0042102E0082100E00C21FFF78CFE002803
:2065200001D0002010BD012010BD00000C4A10B5914201DC00210AE00A4A914201DC0421B0
:2065400005E0094A914201DC082100E00C21FFF772FE002801D0002010BD012010BD0000E3
:20656000000020410000A0410000484207B5012302AAFFF796FE002801D000200EBD012034
:206580000EBD38B50446002069460870204600F0A5F9012805D0694620780978884201D05D
:2065A000012038BD002038BD70B505468068046828462668FFF7E5FF012809D0284600F0B6
:2065C000D9F9012804D00021616031706971084670BD3EB50C466946FFF7E4FB002807D04C
:2065E00000982060019860600298A06000203EBD01203EBD1CB50C46694600F00DF8012869
:2066000009D068460088208068464088608068468088A08000201CBD7FB50D46064602A928
:20662000FFF75BFC002831D003A93046FFF764FC00282BD06846017B082902D1007A002879
:2066400007D06846007A0A46024304D0002904D01CE0082404E0062402E0082816D104247E
:2066600069463046FFF720FC00280FD069460020085E204128800220085E204168800420A9
:20668000085E2041A880002004B070BD0120FBE73EB50C4605466946FFF765FC00281FD05A
:2066A00001A92846FFF76EFC002819D002A92846FFF777FC002813D068460078012800D0A5
:2066C000002020706846007902280BD0002060706846007A042807D00020A07000203EBD78
:2066E00001203EBD0120F2E70120F6E738B50C466946FFF729FC002805D068460078002832
:2067000003D0012801D0012038BD2070002038BD38B50C466946FFF7D1FB00280BD0684690
:206720000078002809D010280AD020280DD030280ED009482060012038BD0120800701E003
:206740008120C0052060002038BD41200006F9E78320C005F6E70000000080BF38B50C4634
:206760006946FFF7D8FB002805D0684600780107090F02D01DE0012038BD0011030003F072
:2067800023FC0805070C0E1012141618002001E07F20C0052060002038BD0748FAE70748CF
:2067A000F8E70748F6E70748F4E70748F2E70748F0E707482060DEE7000020410000C84158
:2067C000000048420000C842000048430000C843000080BFFEB50C4607466946FFF78CFBD2
:2067E000002849D001A93846FFF777FB002843D06846017800790A46024300260125002AE2
:2068000004D008291CD0002934D035E0384602A9FFF754FB002843D06846017A002945D035
:20682000102904D020291FD0302906D101E0204800E0204820603046FEBD1F4820602FE0AB
:20684000002819D1384602A9FFF738FB002827D06846007A002807D0102807D0202807D060
:206860003028EAD11548E5E71548E3E71548E1E71548DFE7082801D00120FEBD384602A967
:20688000FFF71CFB00280BD06846007A002809D0102809D0202809D03028CED10B48C9E793
:2068A0002846FEBD0A48C5E70A48C3E70A48C1E7713DFA409A993B42000080BF7B943B4357
:2068C0007B147A417B14FA417B147A421F853B4148E17A3F9A99F93F9A99794010B5FFF745
:2068E00029FB002801D0002010BD012010BD0000F8B5054618A000680090A868046828460E
:206900002668FFF73EFE012823D080212846FFF760FB00281ED000212846FFF774FB002809
